:10070F000A0D505355432076322E31300A0D00001A
:01071F0023B6
:10020C00E4F52CF52DD29553C3BFEF2DF521C296F5
:10021C000000201904C2B28002C2917D01A20F928B
:10022C0097D296E52125E0F521C2960DBD09EEC2C7
:10023C00977D01D29600C296000DBD06F6D296307F
:10024C009508052DE52D7002052CC2967D01E52D36
:10025C0025E0F52DE52C33F52CD296309508052D9F
:10026C00E52D7002052CC2960DBD0CE2201904D2AE
:10027C00B28002D291D295D29743C3407B007A00D0
:10028C00792C8B298A2A892B120333AB26AA27A90E
:10029C0028120379AB29AA2AA92B90000112034C2E
:0C02AC00AB26AA27A92890000102038BB2
:1006EC00C2198F3B1205FF92193019031206D9A2B9
:0106FC0019E4
:0106FD0022DA
:060413008B248A258926D6
:10041900C2198F3B1205FF92197F33120659120632
:100429002E8F2712062E8F2D12062E8F2C12062E96
:100439008F2B12062E8F2A12062E8F2912062E8F27
:100449002812062E8F2EAB24AA25A926E52A1203E7
:1004590079AB24AA25A926900001E52B12038B90DC
:0F0469000002E52C12038B900003E52D02038B9C
:060554008B248A25892694
:10055A008F3B1206D91205FF7FCC1206597FBE12B5
:10056A00065912062E8F2712062E8F281205FFE52E
:10057A0027C313F527E528D394004003432780AB0C
:0A058A0024AA25A926E5270203791B
:1006D9001205FF7FCC1206597F44120659120026D3
:0306E90040FB22B1
:1005FF00C21AE53BF452A07FEE120765000000001F
:10060F00E53B42A07F211207650000000012077032
:0E061F00B3921A7FCB12076500000000A21AEA
:01062D0022AA
:100659008F20E4F52FF530A200921A1205CDE5207E
:10066900C313F5200530E5307002052FC39408E562
:070679002F6480948040E033
:010680002257
:10062E00E4F531F52FF530E531C313F5311200261F
:10063E0050034331800530E5307002052FC3940816
:0A064E00E52F6480948040DFAF3197
:01065800227F
:1005CD00E53BF4301A1352A07F01120765000000BD
:1005DD0000E53B42A07F1E801152A07F1C120765D3
:1005ED0000000000E53B42A07F03120765000000FC
:0205FD000022DA
:10002600E53BF452A07F0112076500000000E53BA6
:1000360042A07F03120765120770921A7F1A1207F1
:0300460065A21A96
:010049002294
:0A077000E5A0553B7002C322D3221E
:1002B80012014B12073F12000ED213301118C2114F
:1002C800E4F53A7862E624AA600924047008120763
:1002D8007A800312073FA293B392173012051200D7
:1002E8004EC212301705120594C217E53745364538
:1002F8003560C8AB35AA36A93712033324AE600D72
:1003080024FE600E2411701812075A800812077A0A
:1003180080031206FE753500753600753700809B20
:0B0328007535007536007537008090B9
:10014B00E4FFFE7580667590FF75A0BE75B0DFF598
:10015B008C758A87D28C758BEF758DD875891175D7
:10016B009850759B1E758F7F758780759A6475F196
:10017B00FCC2B5D2B7D2B643C31043C30353C3F7C4
:10018B0053C3FB43C32043C340D2AC43B104D2A9F6
:10019B00D2ABD2AFD212C217C210C211C218C21345
:1001AB00F53DF53AF538F53CF539F535F536F537D6
:1001BB00F532F533F534746C2FF8E4F6743E2FF802
:1001CB00E4F60FBF00010EEF64244E70E9E4FF7EEE
:1001DB000A7862E4F608DEFC7B007A00796C7F0417
:1001EB0012041390071FE4937870F67F201206EC2D
:1001FB0092147F101206EC92157F081206EC9216E1
:01020B0022D0
:0C000E00C2A17F14120720C2A7C2B622B4
:1006FE00D2A77F14120720D2A17F14120720D2B6E0
:01070E0022C8
:0A077A00D2A07F14120720C2A022B3
:0B075A001206FE7F1412072002000EA2
:10059400E4F53DC294746C253DF8E6F5C53010FDD4
:1005A400C210053DE53DB422EC1204CD788EE6F58B
:1005B400C53010FDC210E539788E26F40408F6F52E
:0905C400C53010FDC210D29422D2
:10072000C218758BEF758DD88F3CD28E3018FD2294
:0B076500EFD3940040031F80F7002238
:03000B000206A545
:1006A500C0E0C0D00538E538B40A0A753800D21262
:0A06B500301302B2B5D0D0D0E0320D
:03001B00020730A9
:0F073000D53C05C28ED21832758BEF758DD8323D
:06073F007BFF7A07790F31
:090745008B328A338934D29922E7
:030023000203AD28
:0B03AD00C0E0C083C082C0D075D0103B
:1003B80030992BC299AB32AA33A934120333FFFD0B
:1003C8003395E04D600F74012534F534E43533F589
:1003D800338F998009753200753300753400309871
:1003E80021C298AF99AE3A053A74622EF8A617C39F
:1003F800E53A648094894002153ABF0A05753A00C7
:02040800D2110F
:09040A00D0D0D082D083D0E032C2
:03004B0002068129
:10068100C0E0C0D075D000C000C007AFC4EF248067
:100691007009743E253DF8A6C5D210D007D000D010
:0406A100D0D0E032A3
:10004E007B007A0079733014047F2080027F0412C3
:10005E00055430150B7B007A0079747F101205540D
:10006E0030160B7B007A0079757F08120554C21981
:10007E007526007527007528767D057FD012020C37
:10008E00C2197526007527007528787D097F8012A4
:10009E00020CC21975260075270075287A7D097F16
:1000AE009012020CC21975260075270075287C7DEA
:1000BE00097FA012020CC21975260075270075283B
:1000CE007E7D097FB012020CC219752600752700BD
:1000DE007528807D097FC012020CD2197526007515
:1000EE0027007528827D097F8012020CD219752691
:1000FE00007527007528847D097F9012020CD21995
:10010E007526007527007528867D097FA012020CC2
:10011E00D2197526007527007528887D097FB012C3
:10012E00020CD21975260075270075288A7D097F65
:0D013E00C012020CD296E4788EF60206BFC5
:1006BF00E4F539FFFE746C2FF8E62539F5390FBFD5
:0906CF0000010EEF64224E70ECF4
:0106D80022FF
:1004CD00752700752800752940752A00752B007554
:1004DD002C427B007A00793E12047850197B007A09
:1004ED0000793E120511500E7535007536007537C1
:1004FD003E788E7606227535007536007537007894
:04050D008E761522AF
:100478008B248A258926AB27AA28A929120333FFAA
:10048800AB24AA25A926120333FE6F7036AB27AA20
:1004980028A92990000112034CFFAB24AA25A926FC
:1004A80090000112034CFD6F7019AB2AAA2BA92CDE
:1004B800120333B5060B90000112034CB50502D3A5
:0504C80022C322C32243
:10051100120333FF700A90000112034C7002D322C0
:10052100EFB4430B90000112034CB45002D32212DA
:100531000333B4520B90000112034CB44D02D32289
:10054100120333B4540B90000112034CB44F02D385
:0305510022C322A0
:0300000002074EA6
:0C074E00787FE4F6D8FD75818F0202B8B8
:10033300BB010689828A83E0225002E722BBFE02C8
:09034300E32289828A83E49322FB
:10034C00BB010CE58229F582E5833AF583E0225066
:10035C0006E92582F8E622BBFE06E92582F8E222B0
:0D036C00E58229F582E5833AF583E49322CA
:10037900BB010689828A83F0225002F722BBFE0163
:02038900F3225D
:10038B00F8BB010DE58229F582E5833AF583E8F0A8
:10039B00225006E92582C8F622BBFE05E92582C854
:0203AB00F2223C
:00000001FF
