:100723000A0D505355432076322E31300A0D000006
:0107330022A3
:10022000E4F52CF52DD29553C3BFEF2DF521C296E1
:100230000000201904C2B28002C2917D01A20F9277
:1002400097D296E52125E0F521C2960DBD09EEC2B3
:10025000977D01D29600C296000DBD06F6D296306B
:100260009508052DE52D7002052CC2967D01E52D22
:1002700025E0F52DE52C33F52CD296309508052D8B
:10028000E52D7002052CC2960DBD0CE2201904D29A
:10029000B28002D291D295D29743C3407B007A00BC
:1002A000792C8B298A2A892B120347AB26AA27A9E6
:1002B0002812038DAB29AA2AA92B900001120360F2
:0C02C000AB26AA27A92890000102039F8A
:10070000C2198F3B12061392193019031206EDA27B
:0107100019CF
:0107110022C5
:060427008B248A258926C2
:10042D00C2198F3B12061392197F3312066D1206F5
:10043D00428F271206428F2D1206428F2C12064232
:10044D008F2B1206428F2A1206428F291206428FD7
:10045D00281206428F2EAB24AA25A926E52A1203BF
:10046D008DAB24AA25A926900001E52B12039F90A0
:0F047D000002E52C12039F900003E52D02039F60
:060568008B248A25892680
:10056E008F3B1206ED1206137FCC12066D7FBE1264
:10057E00066D1206428F271206428F28120613E5C9
:10058E0027C313F527E528D394004003432780ABF8
:0A059E0024AA25A926E52702038DF3
:1006ED001206137FCC12066D7F4412066D12002682
:0306FD0040FB229D
:10061300C21AE53BF452A07FEE12077900000000F6
:10062300E53B42A07F2112077900000000120784F6
:0E063300B3921A7FCB12077900000000A21AC2
:010641002296
:10066D008F20E4F52FF530A200921A1205E1E52056
:10067D00C313F5200530E5307002052FC39408E54E
:07068D002F6480948040E01F
:010694002243
:10064200E4F531F52FF530E531C313F5311200260B
:1006520050034331800530E5307002052FC3940802
:0A066200E52F6480948040DFAF3183
:01066C00226B
:1005E100E53BF4301A1352A07F0112077900000095
:1005F10000E53B42A07F1E801152A07F1C120779AB
:1006010000000000E53B42A07F03120779000000D3
:020611000022C5
:10002600E53BF452A07F0112077900000000E53B92
:1000360042A07F03120779120784921A7F1A1207C9
:0300460079A21A82
:010049002294
:0A078400E5A0553B7002C322D3220A
:1002CC0012015112074412000ED213301118C21130
:1002DC00E4F53A7862E624AA60092404700812074F
:1002EC008E8003120744A293B392173012051200AA
:1002FC004EC2123017051205A8C217E53745364510
:10030C003560C8AB35AA36A93712034724AE600D49
:10031C0024FE600E2411701812076E800812078ECE
:10032C008003120712753500753600753700809BF7
:0B033C007535007536007537008090A5
:10015100E4FFFE7580607590ED75A03C75B0D7D257
:10016100B3D2B2D291C293D295D297D294F58C7573
:100171008A87D28C758BEF758DD8758911759850DA
:10018100759B1E758F7F758780759A6475F1FCC2AA
:10019100B5D2B7D2B643C31043C30353C3F753C356
:1001A100FB43C32043C340D2AC43B104D2A9D2AB79
:1001B100D2AFD212C217C210C211C218C213F53D7A
:1001C100F53AF538F53CF539F535F536F537F532CB
:1001D100F533F534746C2FF8E4F6743E2FF8E4F639
:1001E1000FBF00010EEF64244E70E9E4FF7E0A7830
:1001F10062E4F608DEFC7B007A00796C7F0412046D
:1002010027900733E4937870F67F20120700921449
:0E0211007F1012070092157F08120700921648
:01021F0022BC
:0C000E00C2A17F14120734C2A7C2B622A0
:10071200D2A77F14120734D2A17F14120734D2B6A3
:0107220022B4
:0A078E00D2A07F14120734C2A0228B
:0B076E001207127F1412073402000E65
:1005A800E4F53DC294746C253DF8E6F5C53010FDC0
:1005B800C210053DE53DB422EC1204E1788EE6F563
:1005C800C53010FDC210E539788E26F40408F6F51A
:0905D800C53010FDC210D29422BE
:10073400C218758BEF758DD88F3CD28E3018FD2280
:0B077900EFD3940040031F80F7002224
:060744007BFF7A07792318
:09074A008B328A338934D29922E2
:030023000203C114
:0B03C100C0E0C083C082C0D075D01027
:1003CC0030992BC299AB32AA33A934120347FFFDE3
:1003DC003395E04D600F74012534F534E43533F575
:1003EC00338F99800975320075330075340030985D
:1003FC0021C298AF99AE3A053A74622EF8A617C38B
:10040C00E53A648094894002153ABF0A05753A00B2
:02041C00D211FB
:09041E00D0D0D082D083D0E032AE
:03000B000206B931
:1006B900C0E0C0D00538E538B40A0A753800D2124E
:0A06C900301302B2B5D0D0D0E032F9
:03001B0002075386
:0F075300D53C05C28ED21832758BEF758DD8321A
:03004B0002069515
:10069500C0E0C0D075D000C000C007AFC4EF248053
:1006A5007009743E253DF8A6C5D210D007D000D0FC
:0406B500D0D0E0328F
:10004E007B007A0079733014047F2080027F0412C3
:10005E00056830150B7B007A0079747F10120568E5
:10006E0030160B7B007A0079757F08120568C2196D
:10007E007526007527007528767D057FD012022023
:10008E00C2197526007527007528787D097F8012A4
:10009E000220C21975260075270075287A7D097F02
:1000AE0090120220C21975260075270075287C7DD6
:1000BE00097FA0120220C219752600752700752827
:1000CE007E7D097FB0120220C219752600752700A9
:1000DE007528807D097FC0120220D2197526007501
:1000EE0027007528827D097F80120220D21975267D
:1000FE00007527007528847D097F90120220D21981
:10010E007526007527007528867D097FA0120220AE
:10011E00D2197526007527007528887D097FB012C3
:10012E000220D21975260075270075288A7D097F51
:10013E00C0120220D296E4788CF608F608F608F67D
:03014E000206D3D3
:1006D300E4F539FFFE746C2FF8E62539F5390FBFC1
:0906E30000010EEF64224E70ECE0
:0106EC0022EB
:1004E100752700752800752940752A00752B007540
:1004F1002C427B007A00793E12048C50197B007AE1
:1005010000793E120525500E753500753600753798
:100511003E788E760622753500753600753700787F
:040521008E7615229B
:10048C008B248A258926AB27AA28A929120347FF82
:10049C00AB24AA25A926120347FE6F7036AB27AAF8
:1004AC0028A929900001120360FFAB24AA25A926D4
:1004BC00900001120360FD6F7019AB2AAA2BA92CB6
:1004CC00120347B5060B900001120360B50502D369
:0504DC0022C322C3222F
:10052500120347FF700A9000011203607002D32284
:10053500EFB4430B900001120360B45002D32212B2
:100545000347B4520B900001120360B44D02D3224D
:10055500120347B4540B900001120360B44F02D349
:0305650022C3228C
:0300000002076292
:0C076200787FE4F6D8FD75818F0202CC90
:10034700BB010689828A83E0225002E722BBFE02B4
:09035700E32289828A83E49322E7
:10036000BB010CE58229F582E5833AF583E0225052
:1003700006E92582F8E622BBFE06E92582F8E2229C
:0D038000E58229F582E5833AF583E49322B6
:10038D00BB010689828A83F0225002F722BBFE014F
:02039D00F32249
:10039F00F8BB010DE58229F582E5833AF583E8F094
:1003AF00225006E92582C8F622BBFE05E92582C840
:0203BF00F22228
:00000001FF
