:100746000A0D505355432076322E31300A0D0000E3
:01075600237F
:10021F00E4F52CF52DD29553C3BFEF2DF521C296E2
:10022F000000201804C2B28002C2917D01A20F9279
:10023F0097D296E52125E0F521C2960DBD09EEC2B4
:10024F00977D01D29600C296000DBD06F6D296306C
:10025F009508052DE52D7002052CC2967D01E52D23
:10026F0025E0F52DE52C33F52CD296309508052D8C
:10027F00E52D7002052CC2960DBD0CE2201804D29C
:10028F00B28002D291D295D29743C3407B007A00BD
:10029F00792C8B298A2A892B120349AB26AA27A9E5
:1002AF002812038FAB29AA2AA92B900001120362EF
:0C02BF00AB26AA27A9289000010203A189
:10072300C2188F3B1206159218301803120710A235
:0107330018AD
:0107340022A2
:060429008B248A258926C0
:10042F00C2188F3B12061592187F3312066F1206F1
:10043F00448F271206448F2D1206448F2C12064428
:10044F008F2B1206448F2A1206448F291206448FCF
:10045F00281206448F2EAB24AA25A926E52A1203BB
:10046F008FAB24AA25A926900001E52B1203A1909A
:0F047F000002E52C1203A1900003E52D0203A15A
:06056A008B248A2589267E
:100570008F3B1207101206157FCC12066F7FBE123A
:10058000066F1206448F271206448F28120615E5BF
:1005900027C313F527E528D394004003432780ABF6
:0A05A00024AA25A926E52702038FEF
:100710001206157FCC12066F7F4412066F120697E1
:0307200040FB2279
:10061500C219E53BF452A07FEE1207AB00000000C3
:10062500E53B42A07F211207AB000000001207B690
:0E063500B392197FCB1207AB00000000A21990
:010643002294
:10066F008F20E4F52FF530A20092191205E3E52053
:10067F00C313F5200530E5307002052FC39408E54C
:07068F002F6480948040E01D
:010696002241
:10064400E4F531F52FF530E531C313F53112069792
:1006540050034331800530E5307002052FC3940800
:0A066400E52F6480948040DFAF3181
:01066E002269
:1005E300E53BF430191352A07F011207AB00000062
:1005F30000E53B42A07F1E801152A07F1C1207AB77
:1006030000000000E53B42A07F031207AB0000009F
:020613000022C3
:10069700E53BF452A07F011207AB00000000E53BE9
:1006A70042A07F031207AB1207B692197F1A1207EF
:0306B700ABA219DA
:0106BA00221D
:0A07B600E5A0553B7002C322D322D8
:1002CB0012014B12077612000E301118C211E4F511
:1002DB003A7863E624AA6009240470081207C080E8
:1002EB0003120776A293B3921630120512004EC278
:1002FB001230160AE4F53CC2B51205AAC216E53750
:10030B0045364535602DAB35AA36A937120349243E
:10031B00AE600D24FE600E2411700F1207A0800A30
:10032B001207C08005120735800075350075360041
:0E033B00753700E53CD394BB408FD2B5808B64
:10014B00E4FFFE7580667590FF75A0BE75B0DFF598
:10015B008C758A87D28C758BEF758DD875891175D7
:10016B00C80275CDFF75CCFF75CBFF75CAFFD2CA20
:10017B00759850759B1E758F7F758780759A647502
:10018B00F1FCC2B5D2B7D2B643C31043C30353C3BA
:10019B00F753C3FB43C32043C340D2AC43B104D298
:1001AB00A9D2ABD2ADD2AFD212C216C210C211C2FB
:1001BB0017F53EF53AF538F53DF539F53CF535F5DE
:1001CB0036F537F532F533F534746D2FF8E4F674F4
:1001DB003F2FF8E4F60FBF00010EEF64244E70E9D9
:1001EB00E4FF7E0A7863E4F608DEFC7B007A007994
:1001FB006D7F04120429900756E4937871F67F20E3
:10020B0012072392137F1012072392147F081207F1
:03021B0023921516
:01021E0022BD
:0C000E00C2A17F14120757C2A7C2B6227D
:10073500D2A77F14120757D2A17F14120757D2B63A
:010745002291
:0A07C000D2A07F14120757C2A02236
:0B07A0001207357F1412075702000EED
:1005AA00E4F53EC294746D253EF8E6F5C53010FDBB
:1005BA00C210053EE53EB422EC1204E3788FE6F55C
:1005CA00C53010FDC210E539788F26F40408F6F517
:0905DA00C53010FDC210D29422BC
:10075700C217758BEF758DD88F3DD28E3017FD225E
:0B07AB00EFD3940040031F80F70022F2
:03000B000206F9F1
:1006F900C0E0C0D00538E538B40A07753800D21211
:07070900053CD0D0D0E03226
:03001B0002076772
:0F076700D53D05C28ED21732758BEF758DD83206
:03002B0002002EA2
:10002E00C0E0C0F0C083C082C0D075D000C2CF1275
:0D003E000785D0D0D082D083D0F0D0E03242
:060776007BFF7A077946C3
:09077C008B328A338934D29922B0
:030023000203C312
:0B03C300C0E0C083C082C0D075D01025
:1003CE0030992BC299AB32AA33A934120349FFFDDF
:1003DE003395E04D600F74012534F534E43533F573
:1003EE00338F99800975320075330075340030985B
:1003FE0021C298AF99AE3A053A74632EF8A617C388
:10040E00E53A648094894002153ABF0A05753A00B0
:02041E00D211F9
:09042000D0D0D082D083D0E032AC
:03004B000206BBEF
:1006BB00C0E0C0D075D000C000C007AFC4EF24802D
:1006CB007009743F253EF8A6C5D210D007D000D0D4
:0406DB00D0D0E03269
:10004E007B007A0079743013047F2080027F0412C3
:10005E00056A30140B7B007A0079757F1012056AE1
:10006E0030150B7B007A0079767F0812056AC2186C
:10007E007526007527007528777D057FD012021F23
:10008E00C2187526007527007528797D097F8012A4
:10009E00021FC21875260075270075287B7D097F03
:1000AE009012021FC21875260075270075287D7DD7
:1000BE00097FA012021FC218752600752700752829
:1000CE007F7D097FB012021FC218752600752700AA
:1000DE007528817D097FC012021FD2187526007502
:1000EE0027007528837D097F8012021FD21875267E
:1000FE00007527007528857D097F9012021FD21882
:10010E007526007527007528877D097FA012021FAE
:10011E00D2187526007527007528897D097FB012C3
:10012E00021FD21875260075270075288B7D097F52
:0D013E00C012021FD296E4788FF60206DF91
:1006DF00E4F539FFFE746D2FF8E62539F5390FBFB4
:0906EF0000010EEF64224E70ECD4
:0106F80022DF
:1004E300752700752800752941752A00752B00753D
:1004F3002C437B007A00793F12048E50197B007ADB
:1005030000793F120527500E753500753600753793
:100513003F788F760622753500753600753700787B
:040523008F76152298
:10048E008B248A258926AB27AA28A929120349FF7E
:10049E00AB24AA25A926120349FE6F7036AB27AAF4
:1004AE0028A929900001120362FFAB24AA25A926D0
:1004BE00900001120362FD6F7019AB2AAA2BA92CB2
:1004CE00120349B5060B900001120362B50502D363
:0504DE0022C322C3222D
:10052700120349FF700A9000011203627002D3227E
:10053700EFB4430B900001120362B45002D32212AE
:100547000349B4520B900001120362B44D02D32247
:10055700120349B4540B900001120362B44F02D343
:0305670022C3228A
:0F078500D0E0D0E0E424D4C0E0E42402C0E032AD
:0300000002079460
:0C079400787FE4F6D8FD7581900202CB5E
:10034900BB010689828A83E0225002E722BBFE02B2
:09035900E32289828A83E49322E5
:10036200BB010CE58229F582E5833AF583E0225050
:1003720006E92582F8E622BBFE06E92582F8E2229A
:0D038200E58229F582E5833AF583E49322B4
:10038F00BB010689828A83F0225002F722BBFE014D
:02039F00F32247
:1003A100F8BB010DE58229F582E5833AF583E8F092
:1003B100225006E92582C8F622BBFE05E92582C83E
:0203C100F22226
:00000001FF
