:100890000A0D505355432076322E31300A0D000098
:0108A0002136
:10029D00E4F52BF52C53C3BFEF2DF521C2960000CD
:1002AD00201604C2B28002C2917D01A20F9297D294
:1002BD0096E52125E0F521C2960DBD09EEC2977D8B
:1002CD0001D29600C296000DBD06F6D29630950865
:1002DD00052CE52C7002052BC296E52C25E0F52C9E
:1002ED00E52B33F52B7D01D296309508052CE52CA9
:1002FD007002052BC296E52C25E0F52CE52B33F588
:10030D002B0DBD0CE2201604D2B28002D29143C354
:10031D00407B007A00792B8B288A29892A12004E7E
:10032D00AB25AA26A927120094AB28AA29A92A90A1
:10033D000001120067AB25AA26A927900001020033
:01034D00A609
:080003008F3A12076B02003670
:0604DC008B238A24892510
:1004E200C2168F3A12076B92167F331207C4120795
:1004F200998F261207998F2C1207998F2B12079921
:100502008F2A1207998F291207998F281207998F1C
:10051200271207998F2DAB23AA24A925E5291200BA
:1005220094AB23AA24A925900001E52A1200A690E3
:0F0532000002E52B1200A6900003E52C0200A6A4
:0606BE008B238A2489252C
:1006C4008F3A12003612076B7FCC1207C47FBE121A
:1006D40007C41207998F261207998F2712076BE513
:1006E40026C313F526E527D394004003432680ABA5
:0A06F40023AA24A925E5260200949C
:1000360012076B7FCC1207C47F441207C412080054
:0300460040FB225A
:10076B00C217E53AF452A07FEE1208DA000000003F
:10077B00E53A42A07F211208DA000000001208E5DA
:0D078B0092177FCB1208DA00000000A217C1
:01079800223E
:1007C4008F20E4F52EF52FA2009217120739E520A9
:1007D400C313F520052FE52F7002052EC39408E5F9
:0707E4002E6480948040E0C8
:0107EB0022EB
:10079900E4F530F52EF52FE530C313F530120800D6
:1007A9005003433080052FE52F7002052EC39408AE
:0A07B900E52E6480948040DFAF302D
:0107C3002213
:10073900E53AF430171352A07F011208DA000000DD
:1007490000E53A42A07F1E801152A07F1C1208DAF0
:1007590000000000E53A42A07F031208DA00000019
:0207690000226C
:10080000E53AF452A07F011208DA00000000E53A50
:1008100042A07F031208DA1208E592177F1A120825
:03082000DAA21742
:0108230022B2
:0A08E500E5A0553A7002C322D322A9
:1003FA0012034E1208B112000E1208EFD213301176
:10040A0018C211E4F5397861E624AA600924047057
:10041A00081208EF80031208B1A293B392143012A3
:10042A00051201A9C2123014031206FEE53645353B
:10043A00453460CAAB34AA35A93612004E24AE60E0
:10044A000D24FE600E241170181208CF80081208BD
:10045A00EF80031207EC753400753500753600809D
:0C046A009D7534007535007536008092D9
:10034E00E4FFFE7580607590ED75A03C75B0D7D258
:10035E00B3D2B2D291D293D294F58C758A87D28CC5
:10036E00758BEF758DD8758911759850759B1E75A7
:10037E008F7F758780759A64F539438F2043D981B5
:10038E0043D80175F1FCC2B5D2B7D2B643C3104300
:10039E00C30353C3F753C3FB43C32043C340D2AC81
:1003AE0043B104D2A9D2ABD2AFD2AED212C214C2D2
:1003BE0010C211C215C213F53CF537F538746B2F08
:1003CE00F8E4F6743D2FF8E4F60FBF00010EEF646B
:1003DE00244E70E97B007A00796B7F201204DC904A
:0C03EE0008A0E493786FF67F040200037F
:0C000E00C2A17F141208A1C2A7C2B62232
:1007EC00D2A77F141208A1D2A17F141208A1D2B6ED
:0107FC0022DA
:0A08EF00D2A07F141208A1C2A022BB
:0B08CF001207EC7F141208A102000EBB
:1006FE00E4F53CC294746B253CF8E6F5C53010FD6C
:10070E00C210053CE53CB422EC1205F3788DE6F5FB
:10071E00C53010FDC210E538788D26F40408F6F5C4
:0B072E00C53010FDC210D294C214228E
:1008A100C215758BEF758DD88F3BD28E3015FD2219
:0B08DA00EFD3940040031F80F70022C2
:0608B1007BFF7A0879903C
:0908B7008B318A328933D2992277
:030023000204765E
:0B047600C0E0C083C082C0D075D01071
:1004810030992BC299AB31AA32A93312004EFFFD2C
:100491003395E04D600F74012533F533E43532F5C2
:1004A100328F9980097531007532007533003098AB
:1004B10021C298AF99AE39053974612EF8A617C3D8
:1004C100E5396480948940021539BF0A0575390000
:0204D100D21146
:0904D300D0D0D082D083D0E032F9
:03000B0002086286
:10086200C0E0C0D00537E537B40A07753700D212A9
:07087200B2B5D0D0D0E03296
:03001B000208C018
:0F08C000D53B05C28ED21532758BEF758DD832B0
:03004B0002082484
:10082400C0E0C0D075D000C000C007AFC4EF2480C2
:100834007009743D253CF8A6C5D210D007D000D06D
:04084400D0D0E032FE
:1001A9007B007A0079727F201206BE7B007A007983
:1001B900737F101206BE7B007A0079747F081206DD
:1001C900BEC2167525007526007527757D097FD075
:1001D90012029DC2167525007526007527777D09BF
:1001E9007F8012029DC21675250075260075277934
:1001F9007D097F9012029DC216752500752600752E
:10020900277B7D097FA012029DC2167525007526E0
:100219000075277D7D097FB012029DC216752500E4
:1002290075260075277F7D097FC012029DD216753C
:1002390025007526007527817D097F8012029DD2D0
:10024900167525007526007527837D097F90120292
:100259009DD2167525007526007527857D097FA015
:1002690012029DD2167525007526007527877D090E
:100279007FB012029DD21675250075260075278953
:100289007D097FC012029DE4788BF608F608F6080E
:04029900F602084819
:10084800E4F538FFFE746B2FF8E62538F5380FBF4E
:0908580000010EEF64224E70EC69
:010861002274
:1005F30075260075270075283F752900752A007533
:100603002B417B007A00793D12059E50197B007ABD
:1006130000793D12067B500E753400753500753632
:100623003D788D7606227534007535007536007871
:040633008D76152289
:10059E008B238A248925AB26AA27A92812004EFF71
:1005AE00AB23AA24A92512004EFE6F7036AB26AAE5
:1005BE0027A928900001120067FFAB23AA24A925C2
:1005CE00900001120067FD6F7019AB29AA2AA92BA2
:1005DE0012004EB5060B900001120067B50502D34E
:0505EE0022C322C3221C
:10067B0012004EFF700A9000011200677002D32225
:10068B00EFB4430B900001120067B45002D3221257
:10069B00004EB4520B900001120067B44D02D322EE
:1006AB0012004EB4540B900001120067B44F02D3EA
:0306BB0022C32235
:10054100E4F508F509F50DF50CF50BF50A20B4FDF8
:1005510030B4FD1208F920B4FD30B4FD20B4FD30F3
:10056100B4FD1208798E088F09AB07AA06E4F9F8E1
:10057100FF7E877D937C031206378F0D8E0C8D0BCA
:100581008C0A78051200C88F0D8E0C8D0B8C0A7B9E
:0C059100007A00790A900003120067FF56
:01059D00223B
:0908F900E4F5F9F5E943D84022C9
:1008790053D8BFAFF9EFFEADE97C00E42DFFEC3EA4
:07088900C313FEEF13FF2271
:0300330002001EAA
:03001E00C2DF320C
:03000000020026D5
:0C002600787FE4F6D8FD75818E0203FAA5
:10004E00BB010689828A83E0225002E722BBFE02B0
:09005E00E32289828A83E49322E3
:10006700BB010CE58229F582E5833AF583E022504E
:1000770006E92582F8E622BBFE06E92582F8E22298
:0D008700E58229F582E5833AF583E49322B2
:10009400BB010689828A83F0225002F722BBFE014B
:0200A400F32245
:1000A600F8BB010DE58229F582E5833AF583E8F090
:1000B600225006E92582C8F622BBFE05E92582C83C
:0200C600F22224
:10063700C2D5E830E70FB2D5E4C39BFBE49AFAE4EE
:1006470099F9E498F8EC30E717B2D512066D120164
:1006570017E4C39BFBE49AFAE499F9E498F880035A
:1006670012011730D50DE4C39FFFE49EFEE49DFD04
:04067700E49CFC22E1
:1000C800E8600FECC313FCED13FDEE13FEEF13FF16
:0300D800D8F1223A
:1000DB0075F008758200EF2FFFEE33FECD33CDCCDC
:1000EB0033CCC58233C5829BED9AEC99E58298405F
:1000FB000CF582EE9BFEED9AFDEC99FC0FD5F0D63C
:10010B00E4CEFBE4CDFAE4CCF9A88222B800C1B965
:10011B000059BA002DEC8BF084CFCECDFCE5F0CBA3
:10012B00F97818EF2FFFEE33FEED33FDEC33FCEBDC
:10013B0033FB10D703994004EB99FB0FD8E5E4F997
:10014B00FA227818EF2FFFEE33FEED33FDEC33FC84
:10015B00C933C910D7059BE99A4007EC9BFCE99A78
:10016B00F90FD8E0E4C9FAE4CCFB2275F010EF2FBD
:10017B00FFEE33FEED33FDCC33CCC833C810D707BD
:10018B009BEC9AE899400AED9BFDEC9AFCE899F8F8
:0E019B000FD5F0DAE4CDFBE4CCFAE4C8F9228B
:00000001FF
