:100766000A0D505355432076322E33300A0D0000C1
:01077600235F
:10022100E4F53AF53BD29553C3BFEF2DF521C296C4
:100231000000201804C2B28002C2917D01A20F9277
:1002410097D296E52125E0F521C2960DBD09EEC2B2
:10025100977D01D29600C296000DBD06F6D296306A
:100261009508053BE53B7002053AC2967D01E53BE9
:1002710025E0F53BE53A33F53AD296309508053B52
:10028100E53B7002053AC2960DBD0CE2201804D27E
:10029100B28002D291D295D29743C3407B007A00BB
:1002A100793A8B378A38893912034EAB34AA35A98A
:1002B10036120394AB37AA38A939900001120367AB
:0C02C100AB34AA35A9369000010203A658
:10074300C2188F2D12064C9218301803120730A2CC
:01075300188D
:010754002282
:06042E008B328A33893491
:10043400C2188F2D12064C92187F331206A612068C
:100444007B8F3512067B8F3B12067B8F3A12067B1D
:100454008F3912067B8F3812067B8F3712067B8FFB
:100464003612067B8F3CAB32AA33A934E53812032B
:1004740094AB32AA33A934900001E5391203A69053
:0F0484000002E53A1203A6900003E53B0203A62F
:06056F008B328A3389344F
:100575008F2D12073012064C7FCC1206A67FBE12B5
:1005850006A612067B8F3512067B8F3612064CE5C2
:1005950035C313F535E536D394004003433580ABB9
:0A05A50032AA33A934E535020394AD
:1007300012064C7FCC1206A67F441206A61206CEE5
:0307400040FB2259
:10064C00C219E52DF452A07FEE1207CB000000007A
:10065C00E52D42A07F211207CB000000001207D627
:0E066C00B392197FCB1207CB00000000A21939
:01067A00225D
:1006A6008F20E4F53DF53EA20092191205E8E520FB
:1006B600C313F520053EE53E7002053DC39408E5EB
:0706C6003D6480948040E0D8
:0106CD00220A
:10067B00E4F53FF53DF53EE53FC313F53F1206CEDE
:10068B005003433F80053EE53E7002053DC3940891
:0A069B00E53D6480948040DFAF3F2E
:0106A5002232
:1005E800E52DF430191352A07F011207CB0000004B
:1005F80000E52D42A07F1E801152A07F1C1207CB60
:1006080000000000E52D42A07F031207CB00000088
:020618000022BE
:1006CE00E52DF452A07F011207CB00000000E52DAE
:1006DE0042A07F031207CB1207D692197F1A120778
:0306EE00CBA21983
:0106F10022E6
:0A07D600E5A0552D7002C322D322C6
:1002CD0012014B12079612000E301118C211E4F5EF
:1002DD002C7864E624AA6009240470081207E080D3
:1002ED0003120796A293B3921630120512004EC256
:1002FD001230160AE4F52EC2B51205AFC216E52965
:10030D0045284527602DAB27AA28A92912034E247D
:10031D00AE600D24FE600E2411700F1207C0800A0E
:10032D001207E0800512075580007527007528001B
:10033D00752900E52ED394BB4002D2B5E4F530808B
:01034D008827
:10014B00E4FFFE7580667590FF75A0BE75B0DFF598
:10015B008C758A87D28C758BEF758DD875891175D7
:10016B00C80275CDFF75CCFF75CBFF75CAFFD2CA20
:10017B00759850759B1E758F7F758780759A647502
:10018B00F1FCC2B5D2B7D2B643C31043C30353C3BA
:10019B00F753C3FB43C32043C340D2AC43B104D298
:1001AB00A9D2ABD2ADD2AFD212C216C210C211C2FB
:1001BB0017F531F52CF52AF52FF52BF52EF530F536
:1001CB0027F528F529F524F525F526746E2FF8E487
:1001DB00F674402FF8E4F60FBF00010EEF64244EC7
:1001EB0070E9E4FF7E0A7864E4F608DEFC7B007AB3
:1001FB0000796E7F2012042E900776E4937872F6C6
:10020B007F2012074392137F1012074392147F082B
:05021B001207439215DB
:0102200022BB
:0C000E00C2A17F14120777C2A7C2B6225D
:10075500D2A77F14120777D2A17F14120777D2B6DA
:010765002271
:0A07E000D2A07F14120777C2A022F6
:0B07C0001207557F1412077702000E8D
:1005AF00E4F531C294746E2531F8E6F5C53010FDCF
:1005BF00C2100531E531B422EC1204E87890E6F56B
:1005CF00C53010FDC210E52B789026F40408F6F51F
:0905DF00C53010FDC210D29422B7
:10077700C217758BEF758DD88F2FD28E3017FD224C
:0B07CB00EFD3940040031F80F70022D2
:03000B0002061AD0
:10061A00C0E0C0F0C083C082C0D075D018E530D326
:10062A00941040031207A5052AE52AB40A09752A77
:10063A0000D212052E0530D0D0D082D083D0F0D08F
:02064A00E0329C
:03001B0002078752
:0F078700D52F05C28ED21732758BEF758DD832F4
:03002B0002002EA2
:10002E00C0E0C0F0C083C082C0D075D000C2CF1275
:0D003E0007A5D0D0D082D083D0F0D0E03222
:060796007BFF7A07796683
:09079C008B248A258926D29922BA
:030023000203C80D
:0B03C800C0E0C083C082C0D075D01020
:1003D30030992BC299AB24AA25A92612034EFFFDFF
:1003E3003395E04D600F74012526F526E43525F598
:1003F300258F99800975240075250075260030988E
:1004030021C298AF99AE2C052C74642EF8A617C39D
:10041300E52C648094894002152CBF0A05752C00D5
:02042300D211F4
:09042500D0D0D082D083D0E032A7
:03004B000206F2B8
:1006F200C0E0C0D075D000C000C007AFC4EF2480F6
:10070200700974402531F8A6C5D210D007D000D0A8
:04071200D0D0E03231
:10004E007B007A0079753013047F2080027F0412C2
:10005E00056F30140B7B007A0079767F1012056FD6
:10006E0030150B7B007A0079777F0812056FC21866
:10007E007534007535007536787D057FD0120221F6
:10008E00C21875340075350075367A7D097F801279
:10009E000221C21875340075350075367C7D097FD6
:1000AE0090120221C21875340075350075367E7DAA
:1000BE00097FA0120221C2187534007535007536FD
:1000CE00807D097FB0120221C2187534007535008B
:1000DE007536827D097FC0120221D21875340075E3
:1000EE0035007536847D097F80120221D218753451
:1000FE00007535007536867D097F90120221D21863
:10010E007534007535007536887D097FA012022181
:10011E00D21875340075350075368A7D097FB01298
:10012E000221D21875340075350075368C7D097F25
:0D013E00C0120221D296E47890F602071656
:10071600E4F52BFFFE746E2FF8E6252BF52B0FBFA5
:0907260000010EEF64224E70EC9C
:01072F0022A7
:1004E80075350075360075374275380075390075F1
:1004F8003A447B007A00794012049350197B007AC1
:1005080000794012052C500E7527007528007529B2
:10051800407890760622752700752800752900789E
:040528009076152292
:100493008B328A338934AB35AA36A93712034EFF20
:1004A300AB32AA33A93412034EFE6F7036AB35AAB2
:1004B30036A937900001120367FFAB32AA33A93480
:1004C300900001120367FD6F7019AB38AA39A93A7E
:1004D30012034EB5060B900001120367B50502D354
:0504E30022C322C32228
:10052C0012034EFF700A9000011203677002D3226F
:10053C00EFB4430B900001120367B45002D32212A4
:10054C00034EB4520B900001120367B44D02D32238
:10055C0012034EB4540B900001120367B44F02D334
:03056C0022C32285
:0F07A500D0E0D0E0E424D6C0E0E42402C0E0328B
:030000000207B440
:0C07B400787FE4F6D8FD7581910202CD3B
:10034E00BB010689828A83E0225002E722BBFE02AD
:09035E00E32289828A83E49322E0
:10036700BB010CE58229F582E5833AF583E022504B
:1003770006E92582F8E622BBFE06E92582F8E22295
:0D038700E58229F582E5833AF583E49322AF
:10039400BB010689828A83F0225002F722BBFE0148
:0203A400F32242
:1003A600F8BB010DE58229F582E5833AF583E8F08D
:1003B600225006E92582C8F622BBFE05E92582C839
:0203C600F22221
:00000001FF
