:1006C3000A0D505355432076322E31300A0D000067
:0106D3002204
:1001D600E4F52BF52CD29553C3BFEF2DF521C2962E
:1001E6000000201604C2B28002C2917D01A20F92C5
:1001F60097D296E52125E0F521C2960DBD09EEC2FE
:10020600977D01D29600C296000DBD06F6D29630B5
:100216009508052CE52C7002052BC2967D01E52C70
:1002260025E0F52CE52B33F52BD296309508052CD9
:10023600E52C7002052BC2960DBD0CE2201604D2E9
:10024600B28002D291D295D29743C3407B007A0006
:10025600792B8B288A29892A1202FDAB25AA26A981
:1002660027120343AB28AA29A92A900001120316D4
:0C027600AB25AA26A92790000102035521
:080003008F3A1205C902069FA5
:0603DD008B238A24892510
:1003E300C2168F3A1205C992167F331206221205DE
:1003F300F78F261205F78F2C1205F78F2B1205F7AF
:100403008F2A1205F78F291205F78F281205F78F08
:10041300271205F78F2DAB23AA24A925E52912035B
:1004230043AB23AA24A925900001E52A1203559082
:0F0433000002E52B120355900003E52C02035540
:06051E008B238A248925CD
:100524008F3A12069F1205C97FCC1206227FBE1293
:1005340006221205F78F261205F78F271205C9E543
:1005440026C313F526E527D394004003432680AB46
:0A05540023AA24A925E5260203438B
:10069F001205C97FCC1206227F44120622120026B1
:0306AF0040FB22EB
:1005C900C217E53AF452A07FEE12071900000000A5
:1005D900E53A42A07F211207190000000012072402
:0D05E90092177FCB12071900000000A21727
:0105F60022E2
:100622008F20E4F52EF52FA2009217120597E520F0
:10063200C313F520052FE52F7002052EC39408E59C
:070642002E6480948040E06B
:01064900228E
:1005F700E4F530F52EF52FE530C313F5301200265C
:100607005003433080052FE52F7002052EC3940851
:0A061700E52E6480948040DFAF30D0
:0106210022B6
:10059700E53AF430171352A07F0112071900000043
:1005A70000E53A42A07F1E801152A07F1C12071956
:1005B70000000000E53A42A07F031207190000007F
:0205C700002210
:10002600E53AF452A07F0112071900000000E53AF4
:1000360042A07F0312071912072492177F1A12078C
:0300460019A217E5
:010049002294
:0A072400E5A0553A7002C322D3226B
:1002820012011C1206E412000ED213301118C21110
:10029200E4F5397861E624AA60092404700812079B
:1002A2002E80031206E4A293B392143012051200B8
:1002B2004EC21230140512055EC214E536453545AC
:1002C2003460C8AB34AA35A9361202FD24AE600DE3
:1002D20024FE600E2411701812070E800812072ED9
:1002E20080031206B2753400753500753600809BA6
:0B02F2007534007535007536008090F3
:10011C00E4FFFE7580607590ED75A03C75B0D7D28C
:10012C00B3D2B2D291C293D295D297D294F58C75A8
:10013C008A87D28C758BEF758DD87589117598500F
:10014C00759B1E758F7F758780759A6475F1FCC2DF
:10015C00B5D2B7D2B643C31043C30353C3F753C38B
:10016C00FB43C32043C340D2AC43B104D2A9D2ABAE
:10017C00D2AFD212C214C210C211C215C213F53CB6
:10018C00F539F537F53BF538F534F535F536F53108
:10019C00F532F533746B2FF8E4F6743D2FF8E4F672
:1001AC000FBF00010EEF64244E70E9E4FF7E0A7865
:1001BC0061E4F608DEFC7B007A00796B7F041203A5
:0901CC00DD9006D3E493786FF690
:0101D5002207
:0C000E00C2A17F141206D4C2A7C2B62201
:1006B200D2A77F141206D4D2A17F141206D4D2B6C6
:0106C2002215
:0A072E00D2A07F141206D4C2A0224C
:0B070E001206B27F141206D402000E87
:10055E00E4F53CC294746B253CF8E6F5C53010FD0D
:10056E00C210053CE53CB422EC120497788DE6F5FA
:10057E00C53010FDC210E538788D26F40408F6F566
:09058E00C53010FDC210D2942208
:1006D400C215758BEF758DD88F3BD28E3015FD22E8
:0B071900EFD3940040031F80F7002284
:0606E4007BFF7A0679C3DA
:0906EA008B318A328933D2992246
:030023000203775E
:0B037700C0E0C083C082C0D075D01071
:1003820030992BC299AB31AA32A9331202FDFFFD7B
:100392003395E04D600F74012533F533E43532F5C2
:1003A200328F9980097531007532007533003098AB
:1003B20021C298AF99AE39053974612EF8A617C3D8
:1003C200E5396480948940021539BF0A0575390000
:0203D200D21146
:0903D400D0D0D082D083D0E032F9
:03000B0002068862
:10068800C0E0C0D00537E537B40A07753700D21285
:07069800B2B5D0D0D0E03272
:03001B000206F3E7
:0F06F300D53B05C28ED21532758BEF758DD8327F
:03004B0002064A60
:10064A00C0E0C0D075D000C000C007AFC4EF24809E
:10065A007009743D253CF8A6C5D210D007D000D049
:04066A00D0D0E032DA
:10004E007B007A0079727F0412051EC21675250098
:10005E007526007527777D097F801201D6C2167529
:10006E0025007526007527797D097F901201D6C26D
:10007E001675250075260075277B7D097FA0120158
:10008E00D6C21675250075260075277D7D097FB0B1
:10009E001201D6C21675250075260075277F7D09BB
:1000AE007FC01201D6D216752500752600752781E0
:1000BE007D097F801201D6D2167525007526007532
:1000CE0027837D097F901201D6D2167525007526DD
:1000DE00007527857D097FA01201D6D216752500E1
:1000EE007526007527877D097FB01201D6D2167549
:1000FE0025007526007527897D097FC01201D6D28D
:0E010E0096E4788BF608F608F608F602066E00
:10066E00E4F538FFFE746B2FF8E62538F5380FBF2A
:09067E0000010EEF64224E70EC45
:010687002250
:1004970075260075270075283F752900752A007590
:1004A7002B417B007A00793D12044250197B007A78
:1004B70000793D1204DB500E753400753500753632
:1004C7003D788D76062275340075350075360078CF
:0404D7008D761522E7
:100442008B238A248925AB26AA27A9281202FDFF1D
:10045200AB23AA24A9251202FDFE6F7036AB26AA91
:1004620027A928900001120316FFAB23AA24A9256D
:10047200900001120316FD6F7019AB29AA2AA92B4D
:100482001202FDB5060B900001120316B50502D348
:0504920022C322C32279
:1004DB001202FDFF700A9000011203167002D32264
:1004EB00EFB4430B900001120316B45002D3221247
:1004FB0002FDB4520B900001120316B44D02D3222D
:10050B001202FDB4540B900001120316B44F02D328
:03051B0022C322D6
:03000000020702F2
:0C070200787FE4F6D8FD75818E0202823B
:1002FD00BB010689828A83E0225002E722BBFE02FF
:09030D00E32289828A83E4932231
:10031600BB010CE58229F582E5833AF583E022509C
:1003260006E92582F8E622BBFE06E92582F8E222E6
:0D033600E58229F582E5833AF583E4932200
:10034300BB010689828A83F0225002F722BBFE0199
:02035300F32293
:10035500F8BB010DE58229F582E5833AF583E8F0DE
:10036500225006E92582C8F622BBFE05E92582C88A
:02037500F22272
:00000001FF
