:1008AF000A0D505355432076322E31300A0D000079
:0108BF002117
:10035B00E4F52BF52C53C3BFEF2DF521C29600000E
:10036B00201604C2B28002C2917D01A20F9297D2D5
:10037B0096E52125E0F521C2960DBD09EEC2977DCC
:10038B0001D29600C296000DBD06F6D296309508A6
:10039B00052CE52C7002052BC296E52C25E0F52CDF
:1003AB00E52B33F52B7D01D296309508052CE52CEA
:1003BB007002052BC296E52C25E0F52CE52B33F5C9
:1003CB002B0DBD0CE2201604D2B28002D291C2C119
:1003DB0043C3407B007A00792B8B288A29892A1208
:1003EB00004EAB25AA26A927120094AB28AA29A94F
:1003FB002A900001120067AB25AA26A927900001BD
:03040B000200A646
:080003008F3C12078402003655
:0604F5008B258A268927F1
:1004FB00C2168F3C12078492167F33120800120724
:10050B00B28F281207B28F2E1207B28F2D1207B29D
:10051B008F2C1207B28F2B1207B28F2A1207B28FB2
:10052B00291207B28F2FAB25AA26A927E52B12007C
:10053B0094AB25AA26A927900001E52C1200A690C2
:0F054B000002E52D1200A6900003E52E0200A687
:0606D7008B238A24892513
:1006DD008F3C1200361207847FCC1208007FBE12A9
:1006ED0008001207B28F261207B28F27120784E572
:1006FD0026C313F526E527D394004003432680AB8C
:0A070D0023AA24A925E52602009482
:100036001207847FCC1208007F4412080012082899
:0300460040FB225A
:10078400C217E53CF452A07FEE1208F90000000005
:10079400E53C42A07F211208F90000000012090480
:0D07A40092177FCB1208F900000000A21789
:0107B1002225
:100800008F20E4F530F531A2009217120752E5204F
:10081000C313F5200531E53170020530C39408E5B6
:07082000306480948040E089
:0108270022AE
:1007B200E4F532F530F531E532C313F5321208288B
:1007C20050034332800531E53170020530C394088D
:0A07D200E5306480948040DFAF3210
:0107DC0022FA
:10075200E53CF430171352A07F011208F9000000A3
:1007620000E53C42A07F1E801152A07F1C1208F9B6
:1007720000000000E53C42A07F031208F9000000DF
:02078200002253
:10082800E53CF452A07F011208F900000000E53C05
:1008380042A07F031208F912090492177F1A1208BE
:03084800F9A217FB
:01084B00228A
:0A090400E5A0553C7002C322D32287
:10040E0012029D1208D012000E12090ED2133012D3
:10041E00051201A9C212301118C211E4F53B78631E
:10042E00E624AA60092404700812090E800312083B
:10043E00D0A293B39214E53845374536603BAB36C0
:10044E00AA37A93812004E24BD601424F160152479
:10045E00FE6016245470173014B412071780AF12B2
:10046E0008EE800A12090E800512089E800075366D
:10047E00007537007538008095301492120717807A
:01048E008DE0
:10029D00E4F523F5247580607590ED75A03C75B07F
:1002AD00D7D2B3D2B2D291D293D294D28CF58C75DF
:1002BD008A87758BEF758DD8758911759850759BDB
:1002CD001E758F7F758780759A64F53B438F20432C
:1002DD00D98143D80175F1FCC2B5D2B7D2B643C3AB
:1002ED001043C30353C3F753C3FB43C32043C3405E
:1002FD00F53EC210D2AC43B104D2A9D2ABD2AFD22B
:10030D00AE7F04120003E4F539F53AC3E5249424D5
:10031D00E523648094805018AF24746D2FF8E4F6B3
:10032D00743F2FF8E4F60524E52470DF052380DB08
:10033D00D212C214C211C215C2137B007A00796D9C
:0D034D007F201204F59008BFE4937871F64C
:01035A002280
:0C000E00C2A17F141208C0C2A7C2B62213
:10089E00D2A77F141208C0D2A17F141208C0D2B6FC
:0108AE002227
:0A090E00D2A07F141208C0C2A0227C
:0B08EE0012089E7F141208C002000ECA
:10071700E4F53EC294746D253EF8E6F5C53010FD4C
:10072700C210053EE53EB422EC12060C788FE6F5C2
:10073700C53010FDC210E53A788F26F40408F6F5A7
:0B074700C53010FDC210D294C2142275
:1008C000C215758BEF758DD88F3DD28E3015FD22F8
:0B08F900EFD3940040031F80F70022A3
:0608D0007BFF7A0879AFFE
:0908D6008B338A348935D2992252
:0300230002048F45
:0B048F00C0E0C083C082C0D075D01058
:10049A0030992BC299AB33AA34A93512004EFFFD0D
:1004AA003395E04D600F74012535F535E43534F5A3
:1004BA00348F99800975330075340075350030988A
:1004CA0021C298AF99AE3B053B74632EF8A617C3B9
:1004DA00E53B648094894002153BBF0A05753B00E1
:0204EA00D2112D
:0904EC00D0D0D082D083D0E032E0
:03000B0002087078
:10087000C0E0C0D00539E539B40A07753900D21295
:07088000B2B5D0D0D0E03288
:03001B000208DFF9
:0F08DF00D53D05C28ED21532758BEF758DD8328F
:03004B0002084C5C
:10084C00C0E0C0D075D000C000C007AFC4EF24809A
:10085C007009743F253EF8A6C5D210D007D000D041
:04086C00D0D0E032D6
:1001A9007B007A0079747F201206D77B007A007968
:1001B900757F101206D77B007A0079767F081206C0
:1001C900D7C2167525007526007527777D097FD05A
:1001D90012035BC2167525007526007527797D09FE
:1001E9007F8012035BC21675250075260075277B73
:1001F9007D097F9012035BC216752500752600756F
:10020900277D7D097FA012035BC21675250075261F
:100219000075277F7D097FB012035BC21675250023
:100229007526007527817D097FC012035BD216757B
:1002390025007526007527837D097F8012035BD20F
:10024900167525007526007527857D097F9012038F
:100259005BD2167525007526007527877D097FA055
:1002690012035BD2167525007526007527897D094D
:100279007FB012035BD21675250075260075278B92
:100289007D097FC012035BE4788DF608F608F6084D
:04029900F60207DD85
:1007DD00E4F53AFFFE746D2FF8E6253AF53A0FBFB2
:0907ED0000010EEF64224E70ECD5
:0107F60022E0
:10060C00752600752700752841752900752A007517
:10061C002B437B007A00793F1205B750197B007A87
:10062C0000793F120694500E7536007537007538F8
:10063C003F788F760622753600753700753800784E
:04064C008F7615226E
:1005B7008B238A248925AB26AA27A92812004EFF58
:1005C700AB23AA24A92512004EFE6F7036AB26AACC
:1005D70027A928900001120067FFAB23AA24A925A9
:1005E700900001120067FD6F7019AB29AA2AA92B89
:1005F70012004EB5060B900001120067B50502D335
:0506070022C322C32202
:1006940012004EFF700A9000011200677002D3220C
:1006A400EFB4430B900001120067B45002D322123E
:1006B400004EB4520B900001120067B44D02D322D5
:1006C40012004EB4540B900001120067B44F02D3D1
:0306D40022C3221C
:10055A00E4F508F509F50DF50CF50BF50A20B4FDDF
:10056A0030B4FD1207F720B4FD30B4FD20B4FD30DD
:10057A00B4FD1208878E088F09AB07AA06E4F9F8BA
:10058A00FF7E877D937C031206508F0D8E0C8D0B98
:10059A008C0A78051200C88F0D8E0C8D0B8C0A7B85
:0C05AA00007A00790A900003120067FF3D
:0105B6002222
:0907F700E4F5F9F5E943D84022CC
:1008870053D8BFAFF9EFFEADE97C00E42DFFEC3E96
:07089700C313FEEF13FF2263
:0300330002001EAA
:03001E00C2DF320C
:03000000020026D5
:0C002600787FE4F6D8FD75819002040E8E
:10004E00BB010689828A83E0225002E722BBFE02B0
:09005E00E32289828A83E49322E3
:10006700BB010CE58229F582E5833AF583E022504E
:1000770006E92582F8E622BBFE06E92582F8E22298
:0D008700E58229F582E5833AF583E49322B2
:10009400BB010689828A83F0225002F722BBFE014B
:0200A400F32245
:1000A600F8BB010DE58229F582E5833AF583E8F090
:1000B600225006E92582C8F622BBFE05E92582C83C
:0200C600F22224
:10065000C2D5E830E70FB2D5E4C39BFBE49AFAE4D5
:1006600099F9E498F8EC30E717B2D5120686120132
:1006700017E4C39BFBE49AFAE499F9E498F8800341
:1006800012011730D50DE4C39FFFE49EFEE49DFDEB
:04069000E49CFC22C8
:1000C800E8600FECC313FCED13FDEE13FEEF13FF16
:0300D800D8F1223A
:1000DB0075F008758200EF2FFFEE33FECD33CDCCDC
:1000EB0033CCC58233C5829BED9AEC99E58298405F
:1000FB000CF582EE9BFEED9AFDEC99FC0FD5F0D63C
:10010B00E4CEFBE4CDFAE4CCF9A88222B800C1B965
:10011B000059BA002DEC8BF084CFCECDFCE5F0CBA3
:10012B00F97818EF2FFFEE33FEED33FDEC33FCEBDC
:10013B0033FB10D703994004EB99FB0FD8E5E4F997
:10014B00FA227818EF2FFFEE33FEED33FDEC33FC84
:10015B00C933C910D7059BE99A4007EC9BFCE99A78
:10016B00F90FD8E0E4C9FAE4CCFB2275F010EF2FBD
:10017B00FFEE33FEED33FDCC33CCC833C810D707BD
:10018B009BEC9AE899400AED9BFDEC9AFCE899F8F8
:0E019B000FD5F0DAE4CDFBE4CCFAE4C8F9228B
:00000001FF
