:100746000A0D505355432076322E31300A0D0000E3
:01075600237F
:10021F00E4F52CF52DD29553C3BFEF2DF521C296E2
:10022F000000201904C2B28002C2917D01A20F9278
:10023F0097D296E52125E0F521C2960DBD09EEC2B4
:10024F00977D01D29600C296000DBD06F6D296306C
:10025F009508052DE52D7002052CC2967D01E52D23
:10026F0025E0F52DE52C33F52CD296309508052D8C
:10027F00E52D7002052CC2960DBD0CE2201904D29B
:10028F00B28002D291D295D29743C3407B007A00BD
:10029F00792C8B298A2A892B120346AB26AA27A9E8
:1002AF002812038CAB29AA2AA92B90000112035FF5
:0C02BF00AB26AA27A92890000102039E8C
:10072300C2198F3B1206129219301903120710A235
:0107330019AC
:0107340022A2
:060426008B248A258926C3
:10042C00C2198F3B12061292197F3312066C1206F8
:10043C00418F271206418F2D1206418F2C12064137
:10044C008F2B1206418F2A1206418F291206418FDB
:10045C00281206418F2EAB24AA25A926E52A1203C1
:10046C008CAB24AA25A926900001E52B12039E90A3
:0F047C000002E52C12039E900003E52D02039E63
:060567008B248A25892681
:10056D008F3B1207101206127FCC12066C7FBE1243
:10057D00066C1206418F271206418F28120612E5CE
:10058D0027C313F527E528D394004003432780ABF9
:0A059D0024AA25A926E52702038CF5
:100710001206127FCC12066C7F4412066C120694ED
:0307200040FB2279
:10061200C21AE53BF452A07FEE1207AB00000000C5
:10062200E53B42A07F211207AB000000001207B693
:0E063200B3921A7FCB1207AB00000000A21A91
:010640002297
:10066C008F20E4F52FF530A200921A1205E0E52058
:10067C00C313F5200530E5307002052FC39408E54F
:07068C002F6480948040E020
:010693002244
:10064100E4F531F52FF530E531C313F53112069498
:1006510050034331800530E5307002052FC3940803
:0A066100E52F6480948040DFAF3184
:01066B00226C
:1005E000E53BF4301A1352A07F011207AB00000064
:1005F00000E53B42A07F1E801152A07F1C1207AB7A
:1006000000000000E53B42A07F031207AB000000A2
:020610000022C6
:10069400E53BF452A07F011207AB00000000E53BEC
:1006A40042A07F031207AB1207B6921A7F1A1207F1
:0306B400ABA21ADC
:0106B7002220
:0A07B600E5A0553B7002C322D322D8
:1002CB0012014B12077612000ED213301118C21105
:1002DB00E4F53A7862E624AA600924047008120750
:1002EB00C08003120776A293B39217301205120047
:1002FB004EC2123017051205A7C217E53745364512
:10030B003560C8AB35AA36A93712034624AE600D4B
:10031B0024FE600E241170181207A080081207C06B
:10032B008003120735753500753600753700809BD5
:0B033B007535007536007537008090A6
:10014B00E4FFFE7580667590FF75A0BE75B0DFF598
:10015B008C758A87D28C758BEF758DD875891175D7
:10016B00C80275CDFF75CCFF75CBFF75CAFFD2CA20
:10017B00759850759B1E758F7F758780759A647502
:10018B00F1FCC2B5D2B7D2B643C31043C30353C3BA
:10019B00F753C3FB43C32043C340D2AC43B104D298
:1001AB00A9D2ABD2ADD2AFD212C217C210C211C2FA
:1001BB0018C213F53DF53AF538F53CF539F535F53B
:1001CB0036F537F532F533F534746C2FF8E4F674F5
:1001DB003E2FF8E4F60FBF00010EEF64244E70E9DA
:1001EB00E4FF7E0A7862E4F608DEFC7B007A007995
:1001FB006C7F04120426900756E4937870F67F20E8
:10020B0012072392147F1012072392157F081207EF
:03021B0023921615
:01021E0022BD
:0C000E00C2A17F14120757C2A7C2B6227D
:10073500D2A77F14120757D2A17F14120757D2B63A
:010745002291
:0A07C000D2A07F14120757C2A02236
:0B07A0001207357F1412075702000EED
:1005A700E4F53DC294746C253DF8E6F5C53010FDC1
:1005B700C210053DE53DB422EC1204E0788EE6F565
:1005C700C53010FDC210E539788E26F40408F6F51B
:0905D700C53010FDC210D29422BF
:10075700C218758BEF758DD88F3CD28E3018FD225D
:0B07AB00EFD3940040031F80F70022F2
:03000B000206DC0E
:1006DC00C0E0C0D00538E538B40A0A753800D2122B
:0A06EC00301302B2B5D0D0D0E032D6
:03001B0002076772
:0F076700D53C05C28ED21832758BEF758DD83206
:03002B0002002EA2
:10002E00C0E0C0F0C083C082C0D075D000C2CF1275
:0D003E000785D0D0D082D083D0F0D0E03242
:060776007BFF7A077946C3
:09077C008B328A338934D29922B0
:030023000203C015
:0B03C000C0E0C083C082C0D075D01028
:1003CB0030992BC299AB32AA33A934120346FFFDE5
:1003DB003395E04D600F74012534F534E43533F576
:1003EB00338F99800975320075330075340030985E
:1003FB0021C298AF99AE3A053A74622EF8A617C38C
:10040B00E53A648094894002153ABF0A05753A00B3
:02041B00D211FC
:09041D00D0D0D082D083D0E032AF
:03004B000206B8F2
:1006B800C0E0C0D075D000C000C007AFC4EF248030
:1006C8007009743E253DF8A6C5D210D007D000D0D9
:0406D800D0D0E0326C
:10004E007B007A0079733014047F2080027F0412C3
:10005E00056730150B7B007A0079747F10120567E7
:10006E0030160B7B007A0079757F08120567C2196E
:10007E007526007527007528767D057FD012021F24
:10008E00C2197526007527007528787D097F8012A4
:10009E00021FC21975260075270075287A7D097F03
:1000AE009012021FC21975260075270075287C7DD7
:1000BE00097FA012021FC219752600752700752828
:1000CE007E7D097FB012021FC219752600752700AA
:1000DE007528807D097FC012021FD2197526007502
:1000EE0027007528827D097F8012021FD21975267E
:1000FE00007527007528847D097F9012021FD21982
:10010E007526007527007528867D097FA012021FAF
:10011E00D2197526007527007528887D097FB012C3
:10012E00021FD21975260075270075288A7D097F52
:0D013E00C012021FD296E4788EF60206F67B
:1006F600E4F539FFFE746C2FF8E62539F5390FBF9E
:0907060000010EEF64224E70ECBC
:01070F0022C7
:1004E000752700752800752940752A00752B007541
:1004F0002C427B007A00793E12048B50197B007AE3
:1005000000793E120524500E75350075360075379A
:100510003E788E7606227535007536007537007880
:040520008E7615229C
:10048B008B248A258926AB27AA28A929120346FF84
:10049B00AB24AA25A926120346FE6F7036AB27AAFA
:1004AB0028A92990000112035FFFAB24AA25A926D6
:1004BB0090000112035FFD6F7019AB2AAA2BA92CB8
:1004CB00120346B5060B90000112035FB50502D36C
:0504DB0022C322C32230
:10052400120346FF700A90000112035F7002D32287
:10053400EFB4430B90000112035FB45002D32212B4
:100544000346B4520B90000112035FB44D02D32250
:10055400120346B4540B90000112035FB44F02D34C
:0305640022C3228D
:0F078500D0E0D0E0E424D4C0E0E42402C0E032AD
:0300000002079460
:0C079400787FE4F6D8FD75818F0202CB5F
:10034600BB010689828A83E0225002E722BBFE02B5
:09035600E32289828A83E49322E8
:10035F00BB010CE58229F582E5833AF583E0225053
:10036F0006E92582F8E622BBFE06E92582F8E2229D
:0D037F00E58229F582E5833AF583E49322B7
:10038C00BB010689828A83F0225002F722BBFE0150
:02039C00F3224A
:10039E00F8BB010DE58229F582E5833AF583E8F095
:1003AE00225006E92582C8F622BBFE05E92582C841
:0203BE00F22229
:00000001FF
