:1006B7000A0D505355432076322E31300A0D000073
:0106C7002111
:10013F00E4F52BF52C53C3BFEF2DF521C29600002C
:10014F00201604C2B28002C2917D01A20F9297D2F3
:10015F0096E52125E0F521C2960DBD09EEC2977DEA
:10016F0001D29600C296000DBD06F6D296309508C4
:10017F00052CE52C7002052BC296E52C25E0F52CFD
:10018F00E52B33F52B7D01D296309508052CE52C08
:10019F007002052BC296E52C25E0F52CE52B33F5E7
:1001AF002B0DBD0CE2201604D2B28002D291C2C137
:1001BF0043C3407B007A00792B8B288A29892A1226
:1001CF000324AB25AA26A92712036AAB28AA29A9BB
:1001DF002A90000112033DAB25AA26A92790000102
:0301EF0002037C8C
:080003008F3B1205B7020693C2
:060404008B258A268927E2
:10040A00C2168F3B1205B792167F331206101205D9
:10041A00E58F281205E58F2E1205E58F2D1205E5C9
:10042A008F2C1205E58F2B1205E58F2A1205E58F11
:10043A00291205E58F2FAB25AA26A927E52B12033A
:10044A006AAB25AA26A927900001E52C12037C9005
:0F045A000002E52D12037C900003E52E02037CC7
:060545008B238A248925A6
:10054B008F3B1206931205B77FCC1206107FBE129B
:10055B0006101205E58F261205E58F271205B7E564
:10056B0026C313F526E527D394004003432680AB1F
:0A057B0023AA24A925E52602036A3D
:100693001205B77FCC1206107F44120610120026F3
:0306A30040FB22F7
:1005B700C217E53BF452A07FEE12070D00000000C2
:1005C700E53B42A07F2112070D000000001207182B
:0D05D70092177FCB12070D00000000A21745
:0105E40022F4
:100610008F20E4F530F531A2009217120585E52010
:10062000C313F5200531E53170020530C39408E5A8
:07063000306480948040E07B
:0106370022A0
:1005E500E4F532F530F531E532C313F53212002664
:1005F50050034332800531E53170020530C394085C
:0A060500E5306480948040DFAF32DE
:01060F0022C8
:10058500E53BF430171352A07F0112070D00000060
:1005950000E53B42A07F1E801152A07F1C12070D73
:1005A50000000000E53B42A07F0312070D0000009C
:0205B500002222
:10002600E53BF452A07F0112070D00000000E53BFE
:1000360042A07F0312070D12071892177F1A1207A4
:030046000DA217F1
:010049002294
:0A071800E5A0553B7002C322D32276
:1002A3001201F21206D812000E120722D2133012D4
:1002B3000512004EC212301118C211E4F53A7862E9
:1002C300E624AA6009240470081207228003120698
:1002D300D8A293B39214E53845374536603BAB3625
:1002E300AA37A93812032424BD601424F16015240D
:1002F300FE6016245470173014B412065C80AF12DB
:100303000702800A12072280051206A680007536AE
:1003130000753700753800809530149212065C80A2
:010323008D4C
:1001F200E4F523F5247580607590ED75A03C75B02B
:10020200D7D2B3D2B2D291D293D294D28CF58C758A
:100212008A87758BEF758DD875891175F1FCC2B51A
:10022200D2B7D2B6759850759B1E758F7F75878031
:10023200759A64F53A43C31043C30353C3F753C3D8
:10024200FB43C32043C340F53DC210D2AC43B104CB
:10025200D2A9D2ABD2AF7F04120003E4F539C3E5D1
:10026200249424E523648094805018AF24746C2F66
:10027200F8E4F6743E2FF8E4F60524E52470DF0571
:100282002380DBD212C214C211C215C2137B007AC0
:1002920000796C7F201204049006C7E4937870F60C
:0102A2002239
:0C000E00C2A17F141206C8C2A7C2B6220D
:1006A600D2A77F141206C8D2A17F141206C8D2B6EA
:0106B6002221
:0A072200D2A07F141206C8C2A02264
:0B0702001206A67F141206C802000EAB
:10065C00E4F53DC294746C253DF8E6F5C53010FD0B
:10066C00C210053DE53DB424ECD294C2140204BE84
:1006C800C215758BEF758DD88F3CD28E3015FD22F3
:0B070D00EFD3940040031F80F7002290
:0606D8007BFF7A0679B7F2
:0906DE008B338A348935D299224C
:0300230002039E37
:0B039E00C0E0C083C082C0D075D0104A
:1003A90030992BC299AB33AA34A935120324FFFD26
:1003B9003395E04D600F74012535F535E43534F595
:1003C900348F99800975330075340075350030987C
:1003D90021C298AF99AE3A053A74622EF8A617C3AE
:1003E900E53A648094894002153ABF0A05753A00D6
:0203F900D2111F
:0903FB00D0D0D082D083D0E032D2
:03000B0002067C6E
:10067C00C0E0C0D00539E539B40A07753900D2128B
:07068C00B2B5D0D0D0E0327E
:03001B000206E7F3
:0F06E700D53C05C28ED21532758BEF758DD8328A
:03004B0002063872
:10063800C0E0C0D075D000C000C007AFC4EF2480B0
:100648007009743E253DF8A6C5D210D007D000D059
:04065800D0D0E032EC
:10004E007B007A0079737F201205457B007A007958
:10005E00747F101205457B007A0079757F081205B2
:10006E0045C2167525007526007527767D097FD049
:10007E0012013FC2167525007526007527787D0979
:10008E007F8012013FC21675250075260075277AEE
:10009E007D097F9012013FC21675250075260075E9
:1000AE00277C7D097FA012013FC21675250075269B
:1000BE000075277E7D097FB012013FC2167525009F
:1000CE007526007527807D097FC012013FD21675F7
:1000DE0025007526007527827D097F8012013FD28B
:1000EE00167525007526007527847D097F901201EF
:1000FE003FD2167525007526007527867D097FA0CF
:10010E0012013FD2167525007526007527887D09C8
:10011E007FB012013FD21675250075260075278A0D
:10012E007D097FC012013FE4788CF608F6788FF6D1
:01013E00229E
:1004BE00752600752700752840752900752A007568
:1004CE002B427B007A00793E12046950197B007A28
:1004DE0000793E120502500E7536007537007538DC
:1004EE003E788E76062275360075370075380078A0
:0404FE008E761522BF
:100469008B238A248925AB26AA27A928120324FFCE
:10047900AB23AA24A925120324FE6F7036AB26AA42
:1004890027A92890000112033DFFAB23AA24A9251F
:1004990090000112033DFD6F7019AB29AA2AA92BFF
:1004A900120324B5060B90000112033DB50502D3D2
:0504B90022C322C32252
:10050200120324FF700A90000112033D7002D322ED
:10051200EFB4430B90000112033DB45002D32212F8
:100522000324B4520B90000112033DB44D02D322B6
:10053200120324B4540B90000112033DB44F02D3B2
:0305420022C322AF
:030000000206F6FF
:0C06F600787FE4F6D8FD75818F0202A326
:10032400BB010689828A83E0225002E722BBFE02D7
:09033400E32289828A83E493220A
:10033D00BB010CE58229F582E5833AF583E0225075
:10034D0006E92582F8E622BBFE06E92582F8E222BF
:0D035D00E58229F582E5833AF583E49322D9
:10036A00BB010689828A83F0225002F722BBFE0172
:02037A00F3226C
:10037C00F8BB010DE58229F582E5833AF583E8F0B7
:10038C00225006E92582C8F622BBFE05E92582C863
:02039C00F2224B
:00000001FF
