:1006F1000A0D505355432076322E31300A0D000039
:0107010021D6
:10014200E4F52BF52C53C3BFEF2DF521C296000029
:10015200201604C2B28002C2917D01A20F9297D2F0
:1001620096E52125E0F521C2960DBD09EEC2977DE7
:1001720001D29600C296000DBD06F6D296309508C1
:10018200052CE52C7002052BC296E52C25E0F52CFA
:10019200E52B33F52B7D01D296309508052CE52C05
:1001A2007002052BC296E52C25E0F52CE52B33F5E4
:1001B2002B0DBD0CE2201604D2B28002D291C2C134
:1001C20043C3407B007A00792B8B288A29892A1223
:1001D2000329AB25AA26A92712036FAB28AA29A9AE
:1001E2002A900001120342AB25AA26A927900001FA
:0301F20002038184
:080003008F3C1205F70206CD47
:060409008B258A268927DD
:10040F00C2168F3C1205F792167F33120650120652
:10041F00258F281206258F2E1206258F2D120625C1
:10042F008F2C1206258F2B1206258F2A1206258F49
:10043F00291206258F2FAB25AA26A927E52B1203F4
:10044F006FAB25AA26A927900001E52C12038190F6
:0F045F000002E52D120381900003E52E020381B8
:06054A008B238A248925A1
:100550008F3C1206CD1205F77FCC1206507FBE12DB
:1005600006501206258F261206258F271205F7E55D
:1005700026C313F526E527D394004003432680AB1A
:0A05800023AA24A925E52602036F33
:1006CD001205F77FCC1206507F44120650120026F9
:0306DD0040FB22BD
:1005F700C217E53CF452A07FEE1207470000000047
:10060700E53C42A07F211207470000000012075275
:0D06170092177FCB12074700000000A217CA
:0106240022B3
:100650008F20E4F530F531A20092171205C5E52090
:10066000C313F5200531E53170020530C39408E568
:07067000306480948040E03B
:010677002260
:10062500E4F532F530F531E532C313F53212002623
:1006350050034332800531E53170020530C394081B
:0A064500E5306480948040DFAF329E
:01064F002288
:1005C500E53CF430171352A07F01120747000000E5
:1005D50000E53C42A07F1E801152A07F1C120747F8
:1005E50000000000E53C42A07F0312074700000021
:0205F5000022E2
:10002600E53CF452A07F0112074700000000E53CC2
:1000360042A07F0312074712075292177F1A120730
:0300460047A217B7
:010049002294
:0A075200E5A0553C7002C322D3223B
:1002A8001201F512071212000E12075CD213301257
:1002B8000512004EC212301118C211E4F53B7863E2
:1002C800E624AA60092404700812075C8003120758
:1002D80012A293B39214E53845374536603BAB36E6
:1002E800AA37A93812032924BD601424F160152403
:1002F800FE6016245470173014B412058A80AF12A9
:10030800073C800A12075C80051206E080007536FB
:1003180000753700753800809530149212058A8070
:010328008D47
:1001F500E4F523F5247580607590ED75A03C75B028
:10020500D7D2B3D2B2D291D293D294D28CF58C7587
:100215008A87758BEF758DD875891175F1FCC2B517
:10022500D2B7D2B6759850759B1E758F7F7587802E
:10023500759A64F53B43C31043C30353C3F753C3D4
:10024500FB43C32043C340F53EC210D2AC43B104C7
:10025500D2A9D2ABD2AF7F04120003E4F539F53A47
:10026500C3E5249424E523648094805018AF247456
:100275006D2FF8E4F6743F2FF8E4F60524E52470B5
:10028500DF052380DBD212C214C211C215C2137B53
:10029500007A00796D7F20120409900701E49378B4
:0202A50071F6F0
:0102A7002234
:0C000E00C2A17F14120702C2A7C2B622D2
:1006E000D2A77F14120702D2A17F14120702D2B63A
:0106F00022E7
:0A075C00D2A07F14120702C2A022EF
:0B073C001206E07F1412070202000EFC
:10058A00E4F53EC294746D253EF8E6F5C53010FDDB
:10059A00C210053EE53EB422EC1204C3788FE6F59C
:1005AA00C53010FDC210E53A788F26F40408F6F536
:0B05BA00C53010FDC210D294C2142204
:10070200C215758BEF758DD88F3DD28E3015FD22B7
:0B074700EFD3940040031F80F7002256
:060712007BFF7A0679F17D
:090718008B338A348935D2992211
:030023000203A332
:0B03A300C0E0C083C082C0D075D01045
:1003AE0030992BC299AB33AA34A935120329FFFD1C
:1003BE003395E04D600F74012535F535E43534F590
:1003CE00348F998009753300753400753500309877
:1003DE0021C298AF99AE3B053B74632EF8A617C3A6
:1003EE00E53B648094894002153BBF0A05753B00CE
:0203FE00D2111A
:09040000D0D0D082D083D0E032CC
:03000B000206B634
:1006B600C0E0C0D00539E539B40A07753900D21251
:0706C600B2B5D0D0D0E03244
:03001B00020721B8
:0F072100D53D05C28ED21532758BEF758DD8324E
:03004B0002067832
:10067800C0E0C0D075D000C000C007AFC4EF248070
:100688007009743F253EF8A6C5D210D007D000D017
:04069800D0D0E032AC
:10004E007B007A0079747F2012054A7B007A007952
:10005E00757F1012054A7B007A0079767F081205AB
:10006E004AC2167525007526007527777D097FD043
:10007E00120142C2167525007526007527797D0975
:10008E007F80120142C21675250075260075277BEA
:10009E007D097F90120142C21675250075260075E6
:1000AE00277D7D097FA0120142C216752500752697
:1000BE000075277F7D097FB0120142C2167525009B
:1000CE007526007527817D097FC0120142D21675F3
:1000DE0025007526007527837D097F80120142D287
:1000EE00167525007526007527857D097F901201EE
:1000FE0042D2167525007526007527877D097FA0CB
:10010E00120142D2167525007526007527897D09C4
:10011E007FB0120142D21675250075260075278B09
:10012E007D097FC0120142E4788DF608F608F608C4
:04013E00F602069C23
:10069C00E4F53AFFFE746D2FF8E6253AF53A0FBFF4
:0906AC0000010EEF64224E70EC17
:0106B5002222
:1004C300752600752700752841752900752A007562
:1004D3002B437B007A00793F12046E50197B007A1C
:1004E30000793F120507500E7536007537007538D1
:1004F3003F788F7606227536007537007538007899
:040503008F761522B8
:10046E008B238A248925AB26AA27A928120329FFC4
:10047E00AB23AA24A925120329FE6F7036AB26AA38
:10048E0027A928900001120342FFAB23AA24A92515
:10049E00900001120342FD6F7019AB29AA2AA92BF5
:1004AE00120329B5060B900001120342B50502D3C3
:0504BE0022C322C3224D
:10050700120329FF700A9000011203427002D322DE
:10051700EFB4430B900001120342B45002D32212EE
:100527000329B4520B900001120342B44D02D322A7
:10053700120329B4540B900001120342B44F02D3A3
:0305470022C322AA
:03000000020730C4
:0C073000787FE4F6D8FD7581900202A8E5
:10032900BB010689828A83E0225002E722BBFE02D2
:09033900E32289828A83E4932205
:10034200BB010CE58229F582E5833AF583E0225070
:1003520006E92582F8E622BBFE06E92582F8E222BA
:0D036200E58229F582E5833AF583E49322D4
:10036F00BB010689828A83F0225002F722BBFE016D
:02037F00F32267
:10038100F8BB010DE58229F582E5833AF583E8F0B2
:10039100225006E92582C8F622BBFE05E92582C85E
:0203A100F22246
:00000001FF
