:10079D0009574841543F00400D5053433E20000D32
:1007AD000D09505355432076342E300D093F20202E
:1007BD00546869732073747566662E0D0963202065
:1007CD004379636C6520506F7765722E0D09662035
:1007DD00205475726E20505355206F66662E0D098C
:1007ED006E20205475726E20505355206F6E2E0D55
:1007FD00097220205265736574204D434520425384
:10080D0052542E0D0964202050535520646174619B
:10081D0020626C6F636B2E0D0974202054656D7012
:10082D00657261747572657320696E206865782EC6
:10083D000D0976202050535520766F6C74616765D5
:10084D00732E0D0962202050535520766F6C746104
:10085D0067657320696E206865782E0D0969202003
:10086D005053552063757272656E74732E0D096F3A
:10087D0020205053552063757272656E7473206914
:08088D006E206865782E0D0055
:040003008206000071
:0A058A0008F2087402F27D017F8080
:10059400E47813F208F2D29553C3BFEF2DF521C2CC
:1005A400960000201804C2B28002C2917D01A20FFD
:1005B4009297D296E52125E0F521C2960DEDB40976
:1005C400EDC2977D01D29600C296000DEDB406F5FA
:1005D400D29630950B7814E22401F218E23400F23A
:1005E400C2967D017814E225E07914F318E23319F8
:1005F400F3D29630950A08E22401F218E23400F2AC
:10060400C2960DEDB40CDD201804D2B28002D29152
:10061400D295D29743C340780FE2B402437BFE7A6B
:1006240000791308EBF208EAF208E9F2120213FF68
:10063400780CE2FB08E2FA08E2F9EF1202597810AA
:10064400E2FB08E2FA08E2F990000112022CFF78BA
:100654000CE2FB08E2FA08E2F9900001EF02026BF7
:100664007D017814E225E07914F318E23319F30DCF
:10067400EDB405EE7BFE7A0079137810EBF208EA0C
:10068400F208E9F2120213FF780CE2FB08E2FA081E
:06069400E2F9EF12025929
:01069A00223D
:10121900C2187808EFF212112C9218301803121222
:031229002DA218DB
:01122C00229F
:0A0D5100780AEBF208EAF208E9F272
:100D5B00C2187808EFF212112C92187F33120FD1B0
:100D6B001210BF780DEFF21210BF7813EFF21210C2
:100D7B00BF7812EFF21210BF7811EFF21210BF789A
:100D8B0010EFF21210BF780FEFF21210BF780EEFC8
:100D9B00F21210BF7814EFF27810E2FF780AE2FB40
:100DAB0008E2FA08E2F9EF1202597811E2FF780A29
:100DBB00E2FB08E2FA08E2F9900001EF12026B780D
:100DCB0012E290000212026B7813E290000302020F
:010DDB006BAC
:0A0F7E00780AEBF208EAF208E9F243
:100F88007808EFF212122D12112C7FCC120FD17F9C
:100F9800BE120FD11210BF780DEFF21210BF780EEB
:100FA800EFF212112C780DE2C313F208E2D3940089
:100FB800400518E24480F2780DE2FF780AE2FB0867
:090FC800E2FA08E2F9EF02025915
:10122D0012112C7FCC120FD17F44120FD112118DC0
:03123D0040FB2251
:10112C00C2197808E2F452A07FEE1212730000008C
:10113C00007808E242A07F21121273000000001216
:10114C001268B392197FCB12127300000000A2191F
:01115C002270
:100FD1008F20E47815F208F2A20092191210F7E5B9
:100FE10020C313F5207816E22401F218E23400F24E
:0D0FF100C308E2940818E26480948040DB9D
:010FFE0022D0
:1010BF00E47817F27815F208F27817E2FFC313F20B
:1010CF0012118D50067817E24480F27816E224014F
:1010DF00F218E23400F2C308E2940818E264809434
:0710EF008040D67817E2FFF4
:0110F60022D7
:1010F7007808E2F430191452A07F0112127300002D
:1011070000007808E242A07F1E801252A07F1C12C6
:101117001273000000007808E242A07F03121273E6
:051127000000000022A1
:10118D007808E2F452A07F0112127300000000787B
:10119D0008E242A07F0312127312126892197F1A8D
:0511AD00121273A219EB
:0111B200221A
:0B1268007808E255A07002C322D322D8
:10069B001208957BFF7A0779AC12116312127E1246
:1006AB00115D201102E130C2ACC211E4F51A784899
:1006BB00E61202F006EE3F07146206E46306F664E8
:1006CB00070066070A6907056E07196F06E97206C8
:1006DB00FB74070F760000071E12124F803E12129A
:1006EB005C80397BFF7A0779AC802E120EB6802C9A
:1006FB00120F1B802712000E802212127E801D12F9
:10070B00045880181209758013120C35800E120BC9
:10071B009D80097BFF7A07799D121163E47848F677
:10072B00D2AC12115DA293B39216301209120316BA
:10073B00C21278CB760130160EE4F51BC2B512103F
:10074B0086C216E478CBF67803E2FB08E2FA08E2FD
:10075B004A4B60307803E2FB08E2FA08E2F9120236
:10076B001324AE600D24FE600E2411700F12124F75
:10077B00800A12125C800512000E80007803E4F2EE
:10078B0008F208F2E51BD394BB4002D2B5E4F51E88
:02079B00C1ADEE
:10089500E4FFFE7580667590FF75A0BE75B0DFF547
:1008A5008C758A87D28C758BEF758DD87589117586
:1008B500C80275CDFF75CCFF75CBFF75CAFFD2CACF
:1008C500759850759B1E758F7F758780759A6475B1
:1008D500F1FCC2B5C2B7D2B643C31043C30353C379
:1008E500F753C3FB43C32043C340D2AC43B104D247
:1008F500A9D2ABD2AFD2B9D212C216C210C211C29E
:1009050017F51FF51AF518F51CF51DF519F51BF565
:100915001EF97803C9F208F208E9F27800E4F20852
:10092500F208F2AD0774A92DF8E4F674242DF8E465
:10093500F60FBF00010EEF64244E70E7E4FF7E0A58
:100945007848E4F608DEFC7B007A0079A97F20125E
:100955000D519007A4E49378ADF67F2012121992F9
:0F096500137F1012121992147F08121219921593
:010974002260
:0A127E00C2A1121203C2A7C2B622D9
:0D000E00D2A7121203D2A1121203D2B62201
:0C125C00D2A07F207E03121207C2A02245
:0D124F0012000E7F207E0312120702127E95
:10108600E4F51FC29474A9251FF8E6F5C53010FDD6
:10109600C210051FE51FB422EC12100078CBE6F54E
:1010A600C53010FDC210E51978CB26F40408F6F514
:0910B600C53010FDC210D29422D5
:041203007F147E00D6
:10120700C217758BEF758DD88E1C8F1DD28E301738
:02121700FD22B6
:0B127300EFD3940040031F80F700221F
:03000B000211ECF3
:1011EC00C0E0C0D00518E518B40A07751800D21273
:0711FC00051BD0D0D0E0324A
:03001B000211B31C
:1011B300C0E0E51D151D7002151CE51D451C7006DC
:0F11C300C28ED2178006758BEF758DD8D0E032B3
:03002B00020008C8
:03000800C2CF3232
:0B0DDC00E6780BFFE22452F9E4FAFB7A
:0A0DE700780CEBF208EAF208E9F2DA
:100DF1007E0FEFC4540F5E78CDF6C3940A5005E61A
:100E01002430800578CDE62437FD780CE2FB080814
:100E1100E2F92401F218E2FA3400F2ED120259EF7C
:100E21005E78CDF6C3940A5005E62430800578CD6E
:100E3100E62437FF780CE2FB0808E2F92401F218F6
:090E4100E2FA3400F2EF1202594A
:010E4A002285
:100EB600E4780AF2E2FF04F274522FF8760D780A0B
:100EC600E2FF04F274522FF8760D780AE2FF04F27C
:100ED60074522FF87620780AE2FF04F274522FF843
:100EE6007620E4FC74A92CF8E6780A120DDF780A5D
:100EF600E22402F20CECB424EB780AE2FF04F2746A
:100F0600522FF8760D780AE22452F8E4F6FB7A00BE
:050F1600795202116395
:100C3500E4780AF208F2E2FF04F274522FF8760D16
:100C4500780BE2FF04F274522FF8760D780BE2FF71
:100C550004F274522FF87620780BE2FF04F27452F6
:100C65002FF876207C0C74A92CF8120DDC780BE299
:100C75002402F218E204F2E2B4020F08E2FF04F2E1
:100C850074522FF87620E4780AF20CECB416D77873
:100C95000BE2FF04F274522FF8762078AE120DDCC9
:100CA500780BE22402F2E2FF04F274522FF8760D7B
:100CB500780BE22452F8E4F6FB7A007952021163CC
:100B9D00E4780AF208F2E2FF04F274522FF8760DAF
:100BAD00780BE2FF04F274522FF8760D780BE2FF0A
:100BBD0004F274522FF87620780BE2FF04F274528F
:100BCD002FF876207C1674A92CF8E6FF780B120D01
:100BDD00E0780BE22402F218E204F2E2B4020F080C
:100BED00E2FF04F274522FF87620E4780AF20CEC4E
:100BFD00B420D3780BE2FF04F274522FF8762078EC
:100C0D00AFE6FF780B120DE0780BE22402F2E2FF63
:100C1D0004F274522FF8760D780BE22452F8E4F6B4
:080C2D00FB7A00795202116309
:100F1B00E4FC0C2452F8760D0C74522401F8760D77
:100F2B000C74522402F8760978B0E6FF74522C1236
:100F3B000DE30C0C0C74522405F8762078B1E6FF07
:100F4B0074522C120DE30C0C0C74522408F87620FE
:100F5B0078B2E6FF74522C120DE30C0C0C74522475
:100F6B000BF8760D7452240CF8E4F6FB7A007952E8
:030F7B00021163FD
:100A4100E6FE08E6FFFDAC06E41201597BA57ABD7E
:100A51007941783E12004E120192780AE22452F94D
:030A6100E4FAFBB9
:100A6400780BEEF208EFF208EBF208EAF208E9F28A
:100A7400900005E412026BE47810F27810E2FFC3F0
:100A84009405506FEFB4021EC374049FFFE49400F6
:100A9400FE780DE2FB08E2FA08E2F98F828E837495
:100AA4002E12026B8046780BE2FE08E2FF7C007D8A
:100AB4000A12028DED2430FF7810E2FDC374049D08
:100AC400FDE49400FC780DE2FB08E2FA08E2F98DFB
:100AD400828C83EF12026B780BE2FE08E2FF7C004B
:100AE4007D0A12028D780BEEF208EFF27810E20420
:050AF400F280887F057F
:010AF90022DA
:10045800E4780AF2E2FF04F274522FF8760D780A73
:10046800E2FF04F274522FF8760D780AE2FF04F2E4
:1004780074522FF8760978BFE6FE08E6FFFDAC0651
:10048800E41201597BD67AFF7979783E12004E1230
:100498000192780A120A5D780AE22FF2E2FF04F26A
:1004A80074522FF8762078C1E6FE08E6FFFDAC0608
:1004B800E41201597B5F7A7B79A6783D12004E12CF
:1004C8000192780A120A5D780AE22FF2E2FF04F23A
:1004D80074522FF8762078C3E6FE08E6FFFDAC06D6
:1004E800E41201597B037ACA7926783C12004E122D
:1004F8000192780A120A5D780AE22FF2E2FF04F20A
:1005080074522FF8762078C5E6FE08E6FFFDAC06A3
:10051800E41201597B917A7E79BB783E12004E1223
:100528000192780A120A5D780AE22FF2E2FF04F2D9
:1005380074522FF87620780AE2FF04F274522FF8EA
:10054800762D78C7E6FE08E6FFFDAC06E4120159F1
:100558007B5F7A7B79A6783D12004E120192780A69
:10056800120A5D780AE22FF2E2FF04F274522FF8C1
:10057800760D780AE22452F8E4F6FB7A0079520202
:020588001163FD
:10097500E4780AF2E2FF04F274522FF8760D780A51
:10098500E2FF04F274522FF8760D780AE2FF04F2C2
:1009950074522FF8760978B5E6FE08E6FFFDAC0639
:1009A500E41201597B557AC179A8783D120A557828
:1009B5000AE22FF2E2FF04F274522FF8762078B79C
:1009C500E6FE08E6FFFDAC06E41201597B5F7A9866
:1009D500790C120A53780AE22FF2E2FF04F27452FC
:1009E5002FF8762078B9120A41780AE22FF2E2FF51
:1009F50004F274522FF8762078BB120A41780AE285
:100A05002FF2E2FF04F274522FF87620780AE2FF03
:100A150004F274522FF8762D78BD120A41780AE255
:100A25002FF2E2FF04F274522FF8760D780AE224D1
:0C0A350052F8E4F6FB7A007952021163DB
:06115D007BFF7A0779A573
:10116300780CEBF208EAF208E9F2780008E2FA08F0
:10117300E24A70F6780CE2F908E2FA08E27800C96C
:0A118300F208EAF208E9F2D299221C
:03002300020AFAD4
:100AFA00C0E0C0F0C083C08263A201C083C082C0CC
:040B0A00D075D008CA
:100B0E00309933C2997800E2FB08E2FA08E2F91252
:100B1E000213FF7809F23395E04F60127802E22457
:100B2E0001F218E23400F27809E2F59980087800B3
:100B3E00E4F208F208F2309844C2987809E599F286
:100B4E00E2FF12124050207809E2FF7806F2780098
:100B5E0074FEF2087400F2087406F2D299AE1A0509
:100B6E001A74482EF8A60FC3E51A648094894002C1
:0D0B7E00151A7809E2B40D05751A00D211A0
:100B8B00D0D0D082D08363A201D082D083D0F0D0DA
:020B9B00E03246
:03004B0002002E82
:10002E00C0E0C0D075D010AFC4EF24807009742426
:0C003E00251FF8A6C5D210D0D0D0E032AB
:100316007B007A0079B07F04120F7E30130B7B00CE
:100326007A0079B17F20120F7E30150B7B007A00A0
:1003360079B27F08120F7EC218780CE4F2087400B6
:10034600F274B512058AC218780CE4F2087400F249
:100356000874B7F2087402F27D017F90120594C208
:1003660018780CE4F2087400F20874B9F208740202
:10037600F27D017FA0120594C218780CE4F208748D
:1003860000F20874BBF2087402F27D017FB0120518
:1003960094C218780CE4F2087400F20874BDF208EE
:1003A6007402F27D017FC0120594C218780CE4F243
:1003B600087400F20874AEF2087401F2FD7FD012E0
:1003C6000594D218780CE4F2087400F274BF120592
:1003D6008AD218780CE4F2087400F20874C1F208A4
:1003E6007402F27D017F90120594D218780CE4F223
:1003F600087400F20874C3F2087402F27D017FA04B
:10040600120594D218780CE4F2087400F20874C548
:10041600F2087402F27D017FB0120594D218780CAE
:10042600E4F2087400F20874C7F2087402F27D015F
:100436007FC0120594D218780CE4F2087400F20812
:1004460074AFF2087401F2FD7FD0120594D29602C1
:0204560011D2C1
:1011D200E4F519FFFE74A92FF8E62519F5190FBFDA
:0911E20000010EEF64224E70ECD6
:0111EB0022E1
:10100000780DE4F2087400F2087426F208E4F2089D
:101010007400F2087428F27B007A007924120E4BD7
:1010200050187B007A007924121043500D7803E4A5
:10103000F2087400F2087424F2227803E4F208F251
:0310400008F22291
:100E4B00780AEBF208EAF208E9F208E2FB08E2FAA8
:100E5B0008E2F9120213FF780AE2FB08E2FA08E251
:100E6B00F9120213FE6F704108E2FB08E2FA08E286
:100E7B00F990000112022CFF780AE2FB08E2FA0853
:100E8B00E2F990000112022CFD6F701D7810E2FB4D
:100E9B0008E2FA08E2F9120213B5060B90000112F0
:0B0EAB00022CB50502D322C322C32293
:10104300120213FF700A90000112022C7002D322C5
:10105300EFB4430B90000112022CB45002D32212BE
:101063000213B4520B90000112022CB44D02D3228E
:10107300120213B4540B90000112022CB44F02D38A
:0310830022C32263
:10004E00EC4D6011E8497017ED33EC3304600DE4AC
:10005E00FCFFFEFD22E933E8330470F80201FE12C4
:10006E0001C958046009E4CC2481500628500902C5
:10007E000208284003020205C0E0EB4A7044B98032
:10008E0006D0E0FB0201F4EF4E701CBD8008EBFFC2
:10009E00EAFEE9FD80EBE98DF0A4FEE5F002013702
:1000AE00E9CDF9EAFEEBFFEF89F0A4FCE5F0CE898D
:1000BE00F0A42EFFE435F0CD89F0A42DFEE435F04A
:1000CE008067EF4E7005BD80D780C3EF8BF0A4AC78
:1000DE00F0EE8BF0A42CFCE435F0F8EF8AF0A42CB3
:1000EE00E5F038FCE433CB8DF0A42CFCE5F03BF8C6
:1000FE00EE8AF0A42CFCE5F038F8E433CF89F0A4B6
:10010E002CFCE5F038CF3400CE89F0A42FFFE5F0BB
:10011E003EFEE433C98DF0A42EFEE5F039CD8AF013
:10012E00A42FFFE5F03EFEE43DFD33D0E0FB50078B
:10013E000BBB000F020208EC2CFCEF33FFEE33FE7C
:06014E00ED33FD0201E0AB
:1001540075F020800E75F010800575F0087D007E26
:10016400007F003392D530D5031202E2EC33401005
:10017400EF33FFEE33FEED33FDEC33FCD5F0ED222F
:0E018400E5F0247EA2D513CC92E7CDCEFF226B
:10019200EDD2E7CD33EC3392D524814006E4FFFE65
:1001A200FDFC22FCE4CFCECDCC24E0501174FF80C4
:1001B200EDC3CC13CCCD13CDCE13CECF13CF047061
:0701C200F030D5DE0202E27D
:1001C900E9D2E7C933E833F892D5EDD2E7CD33EC7C
:0701D90033FC5002B2D522F5
:1001E000EC30E7100FBF000C0EBE00080DBD000480
:1001F0000BEB6014A2D5EB13FCED92E7FD2274FF2C
:10020000FCFDFEFF22E480F8A2D574FF13FC7D8084
:03021000E480EF98
:03000000020CC52A
:0C0CC500787FE4F6D8FD7581CD020D0C9F
:10021300BB010689828A83E0225002E722BBFE02E9
:09022300E32289828A83E493221C
:10022C00BB010CE58229F582E5833AF583E0225087
:10023C0006E92582F8E622BBFE06E92582F8E222D1
:0D024C00E58229F582E5833AF583E49322EB
:10025900BB010689828A83F0225002F722BBFE0184
:02026900F3227E
:10026B00F8BB010DE58229F582E5833AF583E8F0C9
:10027B00225006E92582C8F622BBFE05E92582C875
:02028B00F2225D
:10028D00BC000BBE0029EF8DF084FFADF022E4CC55
:10029D00F875F008EF2FFFEE33FEEC33FCEE9DEC1E
:1002AD00984005FCEE9DFE0FD5F0E9E4CEFD22ED64
:1002BD00F8F5F0EE8420D21CFEADF075F008EF2FAE
:1002CD00FFED33FD4007985006D5F0F222C398FD9F
:0502DD000FD5F0EA223C
:0E02E200C3E49FFFE49EFEE49DFDE49CFC222D
:1002F000D083D082F8E4937012740193700DA3A39D
:1003000093F8740193F5828883E4737402936860B0
:06031000EFA3A3A380DFB0
:0F124000EFC394204007EF947F50028001C32238
:100CD10002069BE493A3F8E493A34003F68001F298
:100CE10008DFF48029E493A3F85407240CC8C33324
:100CF100C4540F4420C8834004F456800146F6DFF3
:100D0100E4800B0102040810204080900003E47E7F
:100D1100019360BCA3FF543F30E509541FFEE493E7
:100D2100A360010ECF54C025E060A840B8E493A3AE
:100D3100FAE493A3F8E493A3C8C582C8CAC583CAD9
:100D4100F0A3C8C582C8CAC583CADFE9DEE780BE91
:0100070000F8
:00000001FF
