:100E12000D52657374617274696E670D00095748EB
:100E220041543F000D0D505355432076332E310D62
:090E320000310D5053433E200035
:04000300022A0000CD
:10073300E4F53DF53ED29553C3BFEF2DF521C296A7
:100743000000201804C2B28002C2917D01A20F9260
:1007530097D296E52125E0F521C2960DBD09EEC29B
:10076300977D01D29600C296000DBD06F6D2963053
:100773009508053EE53E7002053DC2967D01E53EC6
:1007830025E0F53EE53D33F53DD296309508053E2F
:10079300E53E7002053DC2960DBD0CE2201804D261
:1007A300B28002D291D295D29743C3407B007A00A4
:1007B300793D8B3A8A3B893C120213AB37AA38A99D
:1007C30039120259AB3AAA3BA93C90000112022C00
:0C07D300AB37AA38A93990000102026B74
:100ED900C2188F2F120DB89218301803120EC6A21D
:010EE90018F0
:010EEA0022E5
:060AEB008B358A368937C5
:100AF100C2188F2F120DB892187F33120E3B120DB0
:100B0100E78F38120DE78F3E120DE78F3D120DE78B
:100B11008F3C120DE78F3B120DE78F3A120DE78FD5
:100B210039120DE78F3FAB35AA36A937E53B1202E3
:100B310059AB35AA36A937900001E53C12026B90FA
:0F0B41000002E53D12026B900003E53E02026BDD
:060CDB008B358A368937D3
:100CE1008F2F120EC6120DB87FCC120E3B7FBE1293
:100CF1000E3B120DE78F38120DE78F39120DB8E553
:100D010038C313F538E539D394004003433880AB39
:0A0D110035AA36A937E53802025969
:100EC600120DB87FCC120E3B7F44120E3B120E88D9
:030ED60040FB22BC
:100DB800C219E52FF452A07FEE120F440000000084
:100DC800E52F42A07F21120F4400000000120F4FB0
:0E0DD800B392197FCB120F4400000000A21945
:010DE60022EA
:100E3B008F20E4F540F541A2009219120D54E520E4
:100E4B00C313F5200541E54170020540C39408E545
:070E5B00406480948040E038
:010E6200226D
:100DE700E4F542F540F541E542C313F542120E889A
:100DF70050034342800541E54170020540C3940812
:0A0E0700E5406480948040DFAF42B4
:010E110022BE
:100D5400E52FF430191352A07F01120F4400000054
:100D640000E52F42A07F1E801152A07F1C120F4469
:100D740000000000E52F42A07F03120F4400000092
:020D840000224B
:100E8800E52FF452A07F01120F4400000000E52F67
:100E980042A07F03120F44120F4F92197F1A120FAC
:030EA80044A21948
:010EAB002224
:0A0F4F00E5A0552F7002C322D32243
:100640001208007BFF7A0E7926120E6912000E0046
:1006500020AD097BFF7A0E7912120E69120E63C269
:10066000B7C2CFD2AD30116EC2ACC211E4F52E7854
:1006700067E61202F0069E3F06946306A66406B083
:100680006606BA6906B56E06997206AB7406BF7641
:10069000000006C4120F398034120F59802F7BFFDF
:1006A0007A0E79268024120B508022120C00801DB5
:1006B000120EEB801812000E8013120316800E1219
:1006C000044F80097BFF7A0E791F120E69E4786768
:1006D000F6D2AC120E63A293B39216301205120535
:1006E0004AC21230160AE4F530C2B5120D1BC2160A
:1006F000E52945284527602DAB27AA28A9291202FC
:100700001324AE600D24FE600E2411700F120F39F9
:10071000800A120F598005120EEB800075270075B4
:100720002800752900E530D394BB4002D2B5E4F52A
:0307300032C1656E
:10080000E4FFFE7580667590FF75A0BE75B0DFF5DC
:100810008C758A87D28C758BEF758DD8758911751B
:10082000C80275CDFF75CCFF75CBFF75CAFFD2CA64
:10083000759850759B1E758F7F758780759A647546
:10084000F1FCC2B5C2B7D2B643C31043C30353C30E
:10085000F753C3FB43C32043C340D2AC43B104D2DC
:10086000A9D2ABD2ADD2AFD2B9D212C216C210C287
:1008700011C217F533F52EF52CF531F52DF530F5C0
:1008800032F527F528F529F524F525F52674C82F26
:10089000F8E4F674432FF8E4F60FBF00010EEF649E
:1008A000244E70E9E4FF7E0A7867E4F608DEFC7BFC
:1008B000007A0079C87F20120AEB900E33E4937817
:1008C000CCF67F20120ED992137F10120ED99214FB
:0708D0007F08120ED99215FA
:0108D70022FE
:0C000E00C2A17F14120EFCC2A7C2B622D1
:100EEB00D2A77F14120EFCD2A17F14120EFCD2B625
:010EFB0022D4
:0A0F5900D2A07F14120EFCC2A022E9
:0B0F3900120EEB7F14120EFC02000EE3
:100D1B00E4F533C29474C82533F8E6F5C53010FDFD
:100D2B00C2100533E533B422EC120C5478EAE6F525
:100D3B00C53010FDC210E52D78EA26F40408F6F54F
:090D4B00C53010FDC210D2942243
:100EFC00C217758BEF758DD88F31D28E3017FD22BE
:0B0F4400EFD3940040031F80F7002251
:03000B00020D865D
:100D8600C0E0C0F0C083C082C0D075D018E532D3B1
:100D960094104003120F1B052CE52CB40A09752C80
:100DA60000D21205300532D0D0D082D083D0F0D018
:020DB600E03229
:03001B00020F0CC5
:0F0F0C00D53105C28ED21732758BEF758DD83265
:03002B000207DFEA
:1007DF00C0E0C0F0C083C082C0D075D000D2B7C215
:1007EF00CFC2AD120F1BD0D0D082D083D0F0D0E0CB
:0107FF0032C7
:090A6E00E6FF74712CF9E4FAFBB7
:060A77008B368A37893836
:100A7D007E0FEFC4540F5E78ECF6C3940A5012E665
:100A8D002430FDAB360538E538AA377016053780AA
:100A9D001278ECE62437FDAB360538E538AA377009
:100AAD0002053714F9ED120259EF5E78ECF6C39496
:100ABD000A5012E62430FFAB360538E538AA3770F8
:100ACD00160537801278ECE62437FFAB360538E58E
:0D0ADD0038AA377002053714F9EF120259DC
:010AEA0022E9
:100B5000E4F535AF35053574712FF8760DAF3505F1
:100B60003574712FF8760DAF35053574712FF87621
:100B700020AF35053574712FF87620E4FC74C82C4D
:100B8000F8E6FF74712535120A73053505350CBC7E
:100B900024EBAF35053574712FF8760D747125355A
:0B0BA000F8E4F6FB7A007971020E69A0
:100C0000E4FC0C2471F8760D0C74712401F8760D57
:100C10000C74712402F8760978CF120A6E0C0C0C51
:100C200074712405F8762078D0120A6E0C0C0C74BE
:100C3000712408F8762078D1120A6E0C0C0C7471AD
:100C4000240BF8760D7471240CF8E4F6FB7A007925
:040C500071020E69B6
:100964007954783E12004E12019274712535F9E4DF
:02097400FAFB8C
:0A0976008E368F378B388A39893AA4
:10098000900005E412026BE4F53BE53BB4021AFF6C
:10099000C374049FFFE49400AB38AA39A93A8F824C
:1009A000F583742E12026B8037AE36AF377C007D34
:1009B0000A12028DED2430FFE53BFDC374049DFD5A
:1009C000E49400AB38AA39A93A8D82F583EF12027C
:1009D0006BAE36AF377C007D0A12028D8E368F37B4
:0909E000053BE53BB405A37F05CE
:0109E90022EB
:10031600E4F535AF35053574712FF8760DAF350533
:100326003574712FF8760DAF35053574712FF87663
:100336000978DEE6FE08E6FFFDAC06E41201597B0D
:10034600617A327905783F12004E12019274712556
:1003560035120972EF2535F535FF053574712FF81D
:10036600762078E0E6FE08E6FFFDAC06E4120159C9
:100376007BB87AAF7923783E12004E1201927471DF
:100386002535120972EF2535F535FF053574712FC0
:10039600F8762078E2E6FE08E6FFFDAC06E41201F8
:1003A600597BC27ADE79C4783B12004E12019274F0
:1003B600712535120972EF2535F535FF053574714E
:1003C6002FF8762078E4E6FE08E6FFFDAC06E41298
:1003D60001597BB07AE17919783F12004E120192E9
:1003E60074712535120972EF2535F535FF0535741B
:1003F600712FF87620AF35053574712FF8762D7884
:10040600E6E6FE08E6FFFDAC06E41201597BEC7A4F
:100416009E794C783F12004E120192747125351266
:100426000972EF2535F535FF053574712FF87620FD
:10043600AF35053574712FF8760D74712535F8E4EE
:09044600F6FB7A007971020E69DF
:10044F00E4F535AF35053574712FF8760DAF3505F9
:10045F003574712FF8760DAF35053574712FF87629
:10046F000978D4E6FE08E6FFFDAC06E41201597BDD
:10047F00B87A0B79CD783D120968EF2535F535FF40
:10048F00053574712FF8762078D6E6FE08E6FFFD65
:10049F00AC06E41201597B757A02791A120966EFDC
:1004AF002535F535FF053574712FF8762078D8E6A8
:1004BF00FE08E6FFFDAC06E41201597B1E7A857932
:1004CF00AB120966EF2535F535FF053574712FF839
:1004DF00762078DAE6FE08E6FFFDAC06E412015955
:1004EF007B1A7A34120964EF2535F535FF0535741B
:1004FF00712FF87620AF35053574712FF8762D787A
:10050F00DCE6FE08E6FFFDAC06E41201597B867AB5
:10051F00C9120964EF2535F535FF053574712FF8CC
:10052F007620AF35053574712FF8760D747125353A
:0B053F00F8E4F6FB7A007971020E6907
:060E63007BFF7A0E7934DA
:100E69008B368A378938E52645256007000000005A
:0F0E79000080F3853624853725853826D29922C7
:030023000209EAE5
:0D09EA00C0E0C0F0C083C082C0D075D0084E
:1009F70030992DC299AB24AA25A926120213F534E2
:100A0700FF3395E04F601074012526F526E4352560
:100A1700F52585349980097524007525007526000C
:100A2700309839C298859934AF34120F2A501885F7
:100A3700342A75240075250075262AD299AF2E050C
:100A47002E74672FF8A634C3E52E6480948940027C
:0C0A5700152EE534B40D05752E00D211EB
:0B0A6300D0D0D082D083D0F0D0E032A1
:03004B0002002E82
:10002E00C0E0C0D075D010AFC4EF24807009744307
:0C003E002533F8A6C5D210D0D0D0E03297
:10054A007B007A0079CF7F04120CDB30130B7B001F
:10055A007A0079D07F20120CDB30150B7B007A00F1
:10056A0079D17F08120CDBC218753700753800750F
:10057A0039D27D057FD0120733C218753700753816
:10058A00007539D47D097F80120733C21875370088
:10059A007538007539D67D097F90120733C21875F0
:1005AA0037007538007539D87D097FA0120733C224
:1005BA00187537007538007539DA7D097FB012076A
:1005CA0033C2187537007538007539DC7D097FC06C
:1005DA00120733D2187537007538007539DE7D0970
:1005EA007F80120733D2187537007538007539E0E5
:1005FA007D097F90120733D2187537007538007558
:10060A0039E27D097FA0120733D218753700753891
:10061A00007539E47D097FB0120733D218753700A7
:10062A007538007539E67D097FC0120733D296E422
:06063A0078EAF6020EACA6
:100EAC00E4F52DFFFE74C82FF8E6252DF52D0FBFA8
:090EBC0000010EEF64224E70ECFF
:010EC500220A
:100C5400753800753900753A45753B00753C00756B
:100C64003D477B007A007943120BAB50197B007A25
:100C7400007943120C98500E7527007528007529C9
:100C84004378EA76062275270075280075290078CE
:040C9400EA761522C5
:100BAB008B358A368937AB38AA39A93A120213FF2B
:100BBB00AB35AA36A937120213FE6F7036AB38AAC3
:100BCB0039A93A90000112022CFFAB35AA36A9378E
:100BDB0090000112022CFD6F7019AB3BAA3CA93D92
:100BEB00120213B5060B90000112022CB50502D3AD
:050BFB0022C322C32209
:100C9800120213FF700A90000112022C7002D32274
:100CA800EFB4430B90000112022CB45002D322126D
:100CB8000213B4520B90000112022CB44D02D3223D
:100CC800120213B4540B90000112022CB44F02D339
:030CD80022C32212
:0F0F1B00D0E0D0E0E4244FC0E0E42406C0E03290
:10004E00EC4D6011E8497017ED33EC3304600DE4AC
:10005E00FCFFFEFD22E933E8330470F80201FE12C4
:10006E0001C958046009E4CC2481500628500902C5
:10007E000208284003020205C0E0EB4A7044B98032
:10008E0006D0E0FB0201F4EF4E701CBD8008EBFFC2
:10009E00EAFEE9FD80EBE98DF0A4FEE5F002013702
:1000AE00E9CDF9EAFEEBFFEF89F0A4FCE5F0CE898D
:1000BE00F0A42EFFE435F0CD89F0A42DFEE435F04A
:1000CE008067EF4E7005BD80D780C3EF8BF0A4AC78
:1000DE00F0EE8BF0A42CFCE435F0F8EF8AF0A42CB3
:1000EE00E5F038FCE433CB8DF0A42CFCE5F03BF8C6
:1000FE00EE8AF0A42CFCE5F038F8E433CF89F0A4B6
:10010E002CFCE5F038CF3400CE89F0A42FFFE5F0BB
:10011E003EFEE433C98DF0A42EFEE5F039CD8AF013
:10012E00A42FFFE5F03EFEE43DFD33D0E0FB50078B
:10013E000BBB000F020208EC2CFCEF33FFEE33FE7C
:06014E00ED33FD0201E0AB
:1001540075F020800E75F010800575F0087D007E26
:10016400007F003392D530D5031202E2EC33401005
:10017400EF33FFEE33FEED33FDEC33FCD5F0ED222F
:0E018400E5F0247EA2D513CC92E7CDCEFF226B
:10019200EDD2E7CD33EC3392D524814006E4FFFE65
:1001A200FDFC22FCE4CFCECDCC24E0501174FF80C4
:1001B200EDC3CC13CCCD13CDCE13CECF13CF047061
:0701C200F030D5DE0202E27D
:1001C900E9D2E7C933E833F892D5EDD2E7CD33EC7C
:0701D90033FC5002B2D522F5
:1001E000EC30E7100FBF000C0EBE00080DBD000480
:1001F0000BEB6014A2D5EB13FCED92E7FD2274FF2C
:10020000FCFDFEFF22E480F8A2D574FF13FC7D8084
:03021000E480EF98
:030000000208D81B
:0C08D800787FE4F6D8FD7581EC02091F62
:10021300BB010689828A83E0225002E722BBFE02E9
:09022300E32289828A83E493221C
:10022C00BB010CE58229F582E5833AF583E0225087
:10023C0006E92582F8E622BBFE06E92582F8E222D1
:0D024C00E58229F582E5833AF583E49322EB
:10025900BB010689828A83F0225002F722BBFE0184
:02026900F3227E
:10026B00F8BB010DE58229F582E5833AF583E8F0C9
:10027B00225006E92582C8F622BBFE05E92582C875
:02028B00F2225D
:10028D00BC000BBE0029EF8DF084FFADF022E4CC55
:10029D00F875F008EF2FFFEE33FEEC33FCEE9DEC1E
:1002AD00984005FCEE9DFE0FD5F0E9E4CEFD22ED64
:1002BD00F8F5F0EE8420D21CFEADF075F008EF2FAE
:1002CD00FFED33FD4007985006D5F0F222C398FD9F
:0502DD000FD5F0EA223C
:0E02E200C3E49FFFE49EFEE49DFDE49CFC222D
:1002F000D083D082F8E4937012740193700DA3A39D
:1003000093F8740193F5828883E4737402936860B0
:06031000EFA3A3A380DFB0
:0F0F2A00EFC394204007EF947F50028001C32251
:1008E400020640E493A3F8E493A34003F68001F2E4
:1008F40008DFF48029E493A3F85407240CC8C33315
:10090400C4540F4420C8834004F456800146F6DFE3
:10091400E4800B0102040810204080900003E47E70
:10092400019360BCA3FF543F30E509541FFEE493D8
:10093400A360010ECF54C025E060A840B8E493A39F
:10094400FAE493A3F8E493A3C8C582C8CAC583CACA
:10095400F0A3C8C582C8CAC583CADFE9DEE780BE82
:0100070000F8
:00000001FF
