:1008E00009574841543F00320D5053433E20000DFC
:1008F0000D09505355432076332E320D093F2020E9
:10090000546869732073747566662E0D0963202020
:100910004379636C6520506F7765722E0D096620F0
:10092000205475726E20505355206F66662E0D0947
:100930006E20205475726E20505355206F6E2E0D10
:10094000097220205265736574204D43452042533F
:1009500052542E0D09642020505355206461746157
:1009600020626C6F636B2E0D0974202054656D70CE
:10097000657261747572657320696E206865782E82
:100980000D0976202050535520766F6C7461676591
:10099000732E0D09692020505355206375727265BE
:0609A0006E74732E0D00C1
:040003008206000071
:0607280008F27D097F804C
:10072E00E47812F208F2D29553C3BFEF2DF521C231
:10073E00960000201804C2B28002C2917D01A20F61
:10074E009297D296E52125E0F521C2960DEDB409DA
:10075E00EDC2977D01D29600C296000DEDB406F55E
:10076E00D29630950B7813E22401F218E23400F29F
:10077E00C2967D017813E225E07913F318E233195E
:10078E00F3D29630950A08E22401F218E23400F210
:10079E00C2960DEDB40CDD201804D2B28002D291B7
:1007AE00D295D29743C3407BFE7A007912780FEB35
:1007BE00F208EAF208E9F2120213FF780CE2FB08E3
:1007CE00E2FA08E2F9EF12025908E2FB08E2FA082F
:1007DE00E2F990000112022CFF780CE2FB08E2FA1B
:0A07EE0008E2F9900001EF02026B2F
:10104700C2187808EFF2120F1D9218301803121009
:031057005BA21881
:01105A002273
:0A0B7E00780AEBF208EAF208E9F247
:100B8800C2187808EFF2120F1D92187F33120F7EE9
:100B9800120EB0780DEFF2120EB07813EFF2120EBB
:100BA800B07812EFF2120EB07811EFF2120EB078A0
:100BB80010EFF2120EB0780FEFF2120EB0780EEFBF
:100BC800F2120EB07814EFF27810E2FF780AE2FB26
:100BD80008E2FA08E2F9EF1202597811E2FF780AFE
:100BE800E2FB08E2FA08E2F9900001EF12026B78E2
:100BF80012E290000212026B7813E29000030202E4
:010C08006B80
:0A0D9E00780AEBF208EAF208E9F225
:100DA8007808EFF212105B120F1D7FCC120F7E7FB6
:100DB800BE120F7E120EB0780DEFF2120EB0780E42
:100DC800EFF2120F1D780DE2C313F208E2D394007C
:100DD800400518E24480F2780DE2FF780AE2FB0849
:090DE800E2FA08E2F9EF020259F7
:10105B00120F1D7FCC120F7E7F44120F7E120FAC2E
:03106B0040FB2225
:100F1D00C2197808E2F452A07FEE12109200000080
:100F2D00007808E242A07F2112109200000000120A
:100F3D001087B392197FCB12109200000000A219F6
:010F4D002281
:100F7E008F20E47815F208F2A2009219120EE8E51D
:100F8E0020C313F5207816E22401F218E23400F2A1
:0D0F9E00C308E2940818E26480948040DBF0
:010FAB002223
:100EB000E47817F27815F208F27817E2FFC313F21C
:100EC000120FAC50067817E24480F27816E2240143
:100ED000F218E23400F2C308E2940818E264809445
:070EE0008040D67817E2FF05
:010EE70022E8
:100EE8007808E2F430191452A07F01121092000021
:100EF80000007808E242A07F1E801252A07F1C12D8
:100F08001092000000007808E242A07F03121092BD
:050F18000000000022B2
:100FAC007808E2F452A07F01121092000000007841
:100FBC0008E242A07F0312109212108792197F1A36
:050FCC00121092A219B1
:010FD10022FD
:0B1087007808E255A07002C322D322BB
:100638001208007BFF7A0879EF120F5412109D12EE
:100648000F4E30116EC2ACC211E4F51A7848E612AA
:1006580002F006833F067963068B64069566069F5B
:1006680069069A6E067E7206907406A476000006E5
:10067800A912106E803412107B802F7BFF7A0879C4
:10068800EF8024120CE18022120D4A801D12000E08
:10069800801812109D8013120316800E12044880D1
:1006A800097BFF7A0879E0120F54E47848F6D2AC57
:1006B800120F4EA293B39216301209120546C212B7
:1006C80078CB760130160EE4F51BC2B5120E77C250
:1006D80016E478CBF67803E2FB08E2FA08E24A4B24
:1006E80060307803E2FB08E2FA08E2F91202132408
:1006F800AE600D24FE600E2411700F12106E800A79
:1007080012107B800512000E80007803E4F208F2D4
:1007180008F2E51BD394BB4002D2B5E4F51EC14AEA
:10080000E4FFFE7580667590FF75A0BE75B0DFF5DC
:100810008C758A87D28C758BEF758DD8758911751B
:10082000C80275CDFF75CCFF75CBFF75CAFFD2CA64
:10083000759850759B1E758F7F758780759A647546
:10084000F1FCC2B5C2B7D2B643C31043C30353C30E
:10085000F753C3FB43C32043C340D2AC43B104D2DC
:10086000A9D2ABD2AFD2B9D212C216C210C211C233
:1008700017F51FF51AF518F51CF51DF519F51BF5FB
:100880001EF97803C9F208F208E9F27800E4F208E8
:10089000F208F2AD0774A92DF8E4F674242DF8E4FB
:1008A000F60FBF00010EEF64244E70E7E4FF7E0AEE
:1008B0007848E4F608DEFC7B007A0079A97F2012F4
:1008C0000B7E9008E7E49378ADF67F2012104792F4
:0F08D000137F1012104792147F081210479215D1
:0108DF0022F6
:0A109D00C2A1121031C2A7C2B62290
:0D000E00D2A7121031D2A1121031D2B622A9
:0C107B00D2A07F207E03121035C2A022FC
:0D106E0012000E7F207E0312103502109D2F
:100E7700E4F51FC29474A9251FF8E6F5C53010FDE7
:100E8700C210051FE51FB422EC120DF178CBE6F571
:100E9700C53010FDC210E51978CB26F40408F6F525
:090EA700C53010FDC210D29422E6
:041031007F147E00AA
:10103500C217758BEF758DD88E1C8F1DD28E30170C
:02104500FD228A
:0B109200EFD3940040031F80F7002202
:03000B0002101AC6
:10101A00C0E0C0D00518E518B40A07751800D21246
:07102A00051BD0D0D0E0321D
:03001B00020FD2FF
:100FD200C0E0E51D151D7002151CE51D451C7006BF
:0F0FE200C28ED2178006758BEF758DD8D0E03296
:03002B00020008C8
:03000800C2CF3232
:090C0900E6FF74522CF9E4FAFB39
:0A0C1200780BEBF208EAF208E9F2B1
:100C1C007E0FEFC4540F5E78CDF6C3940A5005E6F0
:100C2C002430800578CDE62437FD780BE2FB0808EC
:100C3C00E2F92401F218E2FA3400F2ED120259EF53
:100C4C005E78CDF6C3940A5005E62430800578CD45
:100C5C00E62437FF780BE2FB0808E2F92401F218CE
:090C6C00E2FA3400F2EF12025921
:010C7500225C
:100CE100E4780AF2E2FF04F274522FF8760D780AE2
:100CF100E2FF04F274522FF8760D780AE2FF04F253
:100D010074522FF87620780AE2FF04F274522FF819
:100D11007620E4FC74A92CF8E6FF780AE22452124A
:100D21000C0E780AE22402F20CECB424E7780AE211
:100D3100FF04F274522FF8760D780AE22452F8E497
:090D4100F6FB7A007952020F540E
:100D4A00E4FC0C2452F8760D0C74522401F8760D4A
:100D5A000C74522402F8760978B0120C090C0C0CA7
:100D6A0074522405F8762078B1120C090C0C0C7414
:100D7A00522408F8762078B2120C090C0C0C745222
:100D8A00240BF8760D7452240CF8E4F6FB7A0079F9
:040D9A0052020F549E
:1009A6007954783E12004E120192780AE22452F9E6
:0309B600E4FAFB65
:1009B900780BEEF208EFF208EBF208EAF208E9F236
:1009C900900005E412026BE47810F27810E2FFC39C
:1009D9009405506FEFB4021EC374049FFFE49400A2
:1009E900FE780DE2FB08E2FA08E2F98F828E837441
:1009F9002E12026B8046780BE2FE08E2FF7C007D36
:100A09000A12028DED2430FF7810E2FDC374049DB3
:100A1900FDE49400FC780DE2FB08E2FA08E2F98DA6
:100A2900828C83EF12026B780BE2FE08E2FF7C00F6
:100A39007D0A12028D780BEEF208EFF27810E204CB
:050A4900F280887F052A
:010A4E002285
:10031600E4780AF2E2FF04F274522FF8760D780AB6
:10032600E2FF04F274522FF8760D780AE2FF04F227
:1003360074522FF8760978BFE6FE08E6FFFDAC0694
:10034600E41201597B617A327905783F12004E1228
:100356000192780A1209B2780AE22FF2E2FF04F259
:1003660074522FF8762078C1E6FE08E6FFFDAC064B
:10037600E41201597BB87AAF7923783E12004E1207
:100386000192780A1209B2780AE22FF2E2FF04F229
:1003960074522FF8762078C3E6FE08E6FFFDAC0619
:1003A600E41201597BC27ADE79C4783B12004E1200
:1003B6000192780A1209B2780AE22FF2E2FF04F2F9
:1003C60074522FF8762078C5E6FE08E6FFFDAC06E7
:1003D600E41201597BB07AE17919783F12004E1286
:1003E6000192780A1209B2780AE22FF2E2FF04F2C9
:1003F60074522FF87620780AE2FF04F274522FF82E
:10040600762D78C7E6FE08E6FFFDAC06E412015934
:100416007B577AB279A3783D12004E120192780A80
:100426001209B2780AE22FF2E2FF04F274522FF8B0
:10043600760D780AE22452F8E4F6FB7A0079520245
:020446000F5451
:10044800E4780AF2E2FF04F274522FF8760D780A83
:10045800E2FF04F274522FF8760D780AE2FF04F2F4
:1004680074522FF8760978B5E6FE08E6FFFDAC066B
:10047800E41201597BB87A0B79CD783D1209AA7834
:100488000AE22FF2E2FF04F274522FF8762078B7CE
:10049800E6FE08E6FFFDAC06E41201597B757A0218
:1004A800791A1209A8780AE22FF2E2FF04F27452CC
:1004B8002FF8762078B9E6FE08E6FFFDAC06E412D0
:1004C80001597B1E7A8579AB1209A8780AE22FF2C6
:1004D800E2FF04F274522FF8762078BBE6FE08E6B5
:1004E800FFFDAC06E41201597B1A7A341209A6788A
:1004F8000AE22FF2E2FF04F274522FF87620780A0B
:10050800E2FF04F274522FF8762D78BDE6FE08E675
:10051800FFFDAC06E41201597B867AC91209A67858
:100528000AE22FF2E2FF04F274522FF8760D780AED
:0E053800E22452F8E4F6FB7A007952020F54E6
:060F4E007BFF7A0879E840
:100F5400780BEBF208EAF208E9F2780008E2FA0802
:100F6400E24A70F6780BE2F908E2FA08E27800C97E
:0A0F7400F208EAF208E9F2D299222D
:03002300020A4F7F
:100A4F00C0E0C0F0C083C08263A201C083C082C077
:040A5F00D075D00876
:100A6300309933C2997800E2FB08E2FA08E2F912FE
:100A73000213FF7809F23395E04F60127802E22403
:100A830001F218E23400F27809E2F599800878005F
:100A9300E4F208F208F2309844C2987809E599F232
:100AA300E2FF120FF150207809E2FF7806F2780096
:100AB30074FEF2087400F2087406F2D299AE1A05B5
:100AC3001A74482EF8A60FC3E51A6480948940026D
:0D0AD300151A7809E2B40D05751A00D2114C
:100AE000D0D0D082D08363A201D082D083D0F0D086
:020AF000E032F2
:03004B0002002E82
:10002E00C0E0C0D075D010AFC4EF24807009742426
:0C003E00251FF8A6C5D210D0D0D0E032AB
:100546007B007A0079B07F04120D9E30130B7B007E
:100556007A0079B17F20120D9E30150B7B007A0050
:1005660079B27F08120D9EC218780CE4F208740066
:10057600F274B5120728C218780CE4F2087400F277
:100586000874B7F27D097F9012072EC218780CE422
:10059600F2087400F20874B9F27D097FA012072EE2
:1005A600C218780CE4F2087400F20874BBF27D09F4
:1005B6007FB012072EC218780CE4F2087400F20815
:1005C60074BDF27D097FC012072ED218780CE4F2B2
:1005D600087400F274BF120728D218780CE4F208E7
:1005E6007400F20874C1F27D097F9012072ED218AA
:1005F600780CE4F2087400F20874C3F27D097FA057
:1006060012072ED218780CE4F2087400F20874C5AA
:10061600F27D097FB012072ED218780CE4F2087426
:1006260000F20874C7F27D097FC012072ED2960227
:020636001000B2
:10100000E4F519FFFE74A92FF8E62519F5190FBFAD
:0910100000010EEF64224E70ECA9
:0110190022B4
:100DF100780DE4F2087400F2087426F208E4F208AF
:100E01007400F2087428F27B007A007924120C76BF
:100E110050187B007A007924120E34500D7803E4C7
:100E2100F2087400F2087424F2227803E4F208F262
:030E310008F222A2
:100C7600780AEBF208EAF208E9F208E2FB08E2FA7F
:100C860008E2F9120213FF780AE2FB08E2FA08E228
:100C9600F9120213FE6F704108E2FB08E2FA08E25D
:100CA600F990000112022CFF780AE2FB08E2FA082A
:100CB600E2F990000112022CFD6F701D7810E2FB24
:100CC60008E2FA08E2F9120213B5060B90000112C7
:0B0CD600022CB50502D322C322C3226A
:100E3400120213FF700A90000112022C7002D322D6
:100E4400EFB4430B90000112022CB45002D32212CF
:100E54000213B4520B90000112022CB44D02D3229F
:100E6400120213B4540B90000112022CB44F02D39B
:030E740022C32274
:10004E00EC4D6011E8497017ED33EC3304600DE4AC
:10005E00FCFFFEFD22E933E8330470F80201FE12C4
:10006E0001C958046009E4CC2481500628500902C5
:10007E000208284003020205C0E0EB4A7044B98032
:10008E0006D0E0FB0201F4EF4E701CBD8008EBFFC2
:10009E00EAFEE9FD80EBE98DF0A4FEE5F002013702
:1000AE00E9CDF9EAFEEBFFEF89F0A4FCE5F0CE898D
:1000BE00F0A42EFFE435F0CD89F0A42DFEE435F04A
:1000CE008067EF4E7005BD80D780C3EF8BF0A4AC78
:1000DE00F0EE8BF0A42CFCE435F0F8EF8AF0A42CB3
:1000EE00E5F038FCE433CB8DF0A42CFCE5F03BF8C6
:1000FE00EE8AF0A42CFCE5F038F8E433CF89F0A4B6
:10010E002CFCE5F038CF3400CE89F0A42FFFE5F0BB
:10011E003EFEE433C98DF0A42EFEE5F039CD8AF013
:10012E00A42FFFE5F03EFEE43DFD33D0E0FB50078B
:10013E000BBB000F020208EC2CFCEF33FFEE33FE7C
:06014E00ED33FD0201E0AB
:1001540075F020800E75F010800575F0087D007E26
:10016400007F003392D530D5031202E2EC33401005
:10017400EF33FFEE33FEED33FDEC33FCD5F0ED222F
:0E018400E5F0247EA2D513CC92E7CDCEFF226B
:10019200EDD2E7CD33EC3392D524814006E4FFFE65
:1001A200FDFC22FCE4CFCECDCC24E0501174FF80C4
:1001B200EDC3CC13CCCD13CDCE13CECF13CF047061
:0701C200F030D5DE0202E27D
:1001C900E9D2E7C933E833F892D5EDD2E7CD33EC7C
:0701D90033FC5002B2D522F5
:1001E000EC30E7100FBF000C0EBE00080DBD000480
:1001F0000BEB6014A2D5EB13FCED92E7FD2274FF2C
:10020000FCFDFEFF22E480F8A2D574FF13FC7D8084
:03021000E480EF98
:03000000020AF2FF
:0C0AF200787FE4F6D8FD7581CD020B3949
:10021300BB010689828A83E0225002E722BBFE02E9
:09022300E32289828A83E493221C
:10022C00BB010CE58229F582E5833AF583E0225087
:10023C0006E92582F8E622BBFE06E92582F8E222D1
:0D024C00E58229F582E5833AF583E49322EB
:10025900BB010689828A83F0225002F722BBFE0184
:02026900F3227E
:10026B00F8BB010DE58229F582E5833AF583E8F0C9
:10027B00225006E92582C8F622BBFE05E92582C875
:02028B00F2225D
:10028D00BC000BBE0029EF8DF084FFADF022E4CC55
:10029D00F875F008EF2FFFEE33FEEC33FCEE9DEC1E
:1002AD00984005FCEE9DFE0FD5F0E9E4CEFD22ED64
:1002BD00F8F5F0EE8420D21CFEADF075F008EF2FAE
:1002CD00FFED33FD4007985006D5F0F222C398FD9F
:0502DD000FD5F0EA223C
:0E02E200C3E49FFFE49EFEE49DFDE49CFC222D
:1002F000D083D082F8E4937012740193700DA3A39D
:1003000093F8740193F5828883E4737402936860B0
:06031000EFA3A3A380DFB0
:0F0FF100EFC394204007EF947F50028001C3228A
:100AFE00020638E493A3F8E493A34003F68001F2D0
:100B0E0008DFF48029E493A3F85407240CC8C333F8
:100B1E00C4540F4420C8834004F456800146F6DFC7
:100B2E00E4800B0102040810204080900003E47E54
:100B3E00019360BCA3FF543F30E509541FFEE493BC
:100B4E00A360010ECF54C025E060A840B8E493A383
:100B5E00FAE493A3F8E493A3C8C582C8CAC583CAAE
:100B6E00F0A3C8C582C8CAC583CADFE9DEE780BE66
:0100070000F8
:00000001FF
